{
  "contractName": "Comments",
  "abi": [
    {
      "anonymous": false,
      "inputs": [
        {
          "indexed": false,
          "internalType": "bytes32",
          "name": "id",
          "type": "bytes32"
        },
        {
          "indexed": false,
          "internalType": "bytes32",
          "name": "postId",
          "type": "bytes32"
        }
      ],
      "name": "commentAdded",
      "type": "event"
    },
    {
      "anonymous": false,
      "inputs": [
        {
          "indexed": false,
          "internalType": "bytes32",
          "name": "id",
          "type": "bytes32"
        },
        {
          "indexed": false,
          "internalType": "address",
          "name": "admin",
          "type": "address"
        }
      ],
      "name": "commentHidden",
      "type": "event"
    },
    {
      "anonymous": false,
      "inputs": [
        {
          "indexed": false,
          "internalType": "bytes32",
          "name": "id",
          "type": "bytes32"
        },
        {
          "indexed": false,
          "internalType": "bytes32",
          "name": "parent",
          "type": "bytes32"
        },
        {
          "indexed": false,
          "internalType": "bytes32",
          "name": "postId",
          "type": "bytes32"
        }
      ],
      "name": "replyAdded",
      "type": "event"
    },
    {
      "inputs": [
        {
          "internalType": "uint256",
          "name": "",
          "type": "uint256"
        }
      ],
      "name": "commentsArray",
      "outputs": [
        {
          "internalType": "bytes32",
          "name": "",
          "type": "bytes32"
        }
      ],
      "stateMutability": "view",
      "type": "function"
    }
  ],
  "bytecode": "0x608060405234801561001057600080fd5b5061014d806100206000396000f3fe608060405234801561001057600080fd5b506004361061002b5760003560e01c8063a608f86214610030575b600080fd5b61004a60048036038101906100459190610099565b610060565b60405161005791906100d1565b60405180910390f35b6000818154811061007057600080fd5b906000526020600020016000915090505481565b60008135905061009381610100565b92915050565b6000602082840312156100ab57600080fd5b60006100b984828501610084565b91505092915050565b6100cb816100ec565b82525050565b60006020820190506100e660008301846100c2565b92915050565b6000819050919050565b6000819050919050565b610109816100f6565b811461011457600080fd5b5056fea264697066735822122068369f75d08af85d00d7ef16cbbb842b19de9a9a47def9e47f0b62f8bc61557364736f6c63430008000033",
  "immutableReferences": {},
  "source": "// SPDX-License-Identifier: UNLICENSED\npragma solidity ^0.8.0;\n\ncontract Comments {\n    struct commentStruct {\n        bytes32 id;\n        bytes32 postId;\n        address owner;\n        string contentId;\n        bool hidden;\n        bytes32 parent;\n        bytes32[] replies;\n    }\n\n    bytes32[] public commentsArray;\n\n    mapping(bytes32 => commentStruct) commentsMap;\n    mapping(bytes32 => bytes32[]) commentsForPost;\n\n    // modifiers\n    modifier isCommentForPost(bytes32 postId, bytes32 commentId) {\n        require(\n            commentsMap[commentId].postId == postId,\n            \"Wrong comment for post\"\n        );\n        _;\n    }\n\n    // events\n    event commentAdded(bytes32 id, bytes32 postId);\n    event replyAdded(bytes32 id, bytes32 parent, bytes32 postId);\n    event commentHidden(bytes32 id, address admin);\n\n    function _addComment(bytes32 postId, string memory contentId)\n        internal\n        returns (bytes32 id)\n    {\n        id = _createComment(postId, contentId);\n\n        commentsForPost[postId].push(id);\n\n        emit commentAdded(id, postId);\n    }\n\n    function _addComment(\n        bytes32 postId,\n        string memory contentId,\n        bytes32 parent\n    ) internal returns (bytes32 id) {\n        id = _createComment(postId, contentId);\n\n        commentsMap[id].parent = parent;\n        commentsMap[parent].replies.push(id);\n\n        emit replyAdded(id, parent, postId);\n    }\n\n    function _hideComment(bytes32 postId, bytes32 commentId)\n        internal\n        isCommentForPost(postId, commentId)\n    {\n        commentsMap[commentId].hidden = true;\n\n        emit commentHidden(commentId, msg.sender);\n    }\n\n    function _createComment(bytes32 postId, string memory contentId)\n        internal\n        returns (bytes32 id)\n    {\n        id = keccak256(\n            abi.encodePacked(postId, contentId, msg.sender, block.timestamp)\n        );\n        commentsMap[id].id = id;\n        commentsMap[id].postId = postId;\n        commentsMap[id].contentId = contentId;\n        commentsMap[id].owner = msg.sender;\n    }\n}\n",
  "sourcePath": "/Users/ghostffcode/Documents/UpkitStudio/etherblog/contracts/subcontracts/Comments.sol",
  "compiler": {
    "name": "solc",
    "version": "0.8.0+commit.c7dfd78e.Emscripten.clang"
  },
  "schemaVersion": "3.4.1",
  "updatedAt": "2021-07-19T17:02:56.607Z",
  "devdoc": {
    "kind": "dev",
    "methods": {},
    "version": 1
  },
  "userdoc": {
    "kind": "user",
    "methods": {},
    "version": 1
  }
}