{
  "contractName": "Posts",
  "abi": [
    {
      "anonymous": false,
      "inputs": [
        {
          "indexed": false,
          "internalType": "bytes32",
          "name": "id",
          "type": "bytes32"
        },
        {
          "indexed": false,
          "internalType": "string",
          "name": "title",
          "type": "string"
        },
        {
          "indexed": false,
          "internalType": "address",
          "name": "poster",
          "type": "address"
        }
      ],
      "name": "postCreated",
      "type": "event"
    },
    {
      "anonymous": false,
      "inputs": [
        {
          "indexed": false,
          "internalType": "bytes32",
          "name": "id",
          "type": "bytes32"
        },
        {
          "indexed": false,
          "internalType": "string",
          "name": "title",
          "type": "string"
        },
        {
          "indexed": false,
          "internalType": "string",
          "name": "slug",
          "type": "string"
        }
      ],
      "name": "postPublished",
      "type": "event"
    },
    {
      "anonymous": false,
      "inputs": [
        {
          "indexed": false,
          "internalType": "bytes32",
          "name": "id",
          "type": "bytes32"
        },
        {
          "indexed": false,
          "internalType": "string",
          "name": "title",
          "type": "string"
        },
        {
          "indexed": false,
          "internalType": "string",
          "name": "slug",
          "type": "string"
        }
      ],
      "name": "postUnlisted",
      "type": "event"
    },
    {
      "anonymous": false,
      "inputs": [
        {
          "indexed": false,
          "internalType": "bytes32",
          "name": "id",
          "type": "bytes32"
        },
        {
          "indexed": false,
          "internalType": "string",
          "name": "title",
          "type": "string"
        },
        {
          "indexed": false,
          "internalType": "string",
          "name": "slug",
          "type": "string"
        }
      ],
      "name": "postUnpublished",
      "type": "event"
    },
    {
      "inputs": [
        {
          "internalType": "uint256",
          "name": "",
          "type": "uint256"
        }
      ],
      "name": "postsArray",
      "outputs": [
        {
          "internalType": "bytes32",
          "name": "",
          "type": "bytes32"
        }
      ],
      "stateMutability": "view",
      "type": "function"
    },
    {
      "inputs": [
        {
          "internalType": "string",
          "name": "title",
          "type": "string"
        },
        {
          "internalType": "string",
          "name": "slug",
          "type": "string"
        },
        {
          "internalType": "string",
          "name": "image",
          "type": "string"
        },
        {
          "internalType": "string",
          "name": "synopsis",
          "type": "string"
        },
        {
          "internalType": "bool",
          "name": "nsfw",
          "type": "bool"
        },
        {
          "internalType": "string",
          "name": "contentId",
          "type": "string"
        }
      ],
      "name": "createNewPost",
      "outputs": [
        {
          "internalType": "bytes32",
          "name": "postId",
          "type": "bytes32"
        }
      ],
      "stateMutability": "nonpayable",
      "type": "function"
    },
    {
      "inputs": [
        {
          "internalType": "bytes32",
          "name": "postId",
          "type": "bytes32"
        },
        {
          "internalType": "bool",
          "name": "nsfw",
          "type": "bool"
        }
      ],
      "name": "changePostNSFWStatus",
      "outputs": [],
      "stateMutability": "nonpayable",
      "type": "function"
    },
    {
      "inputs": [
        {
          "internalType": "bytes32",
          "name": "postId",
          "type": "bytes32"
        },
        {
          "internalType": "bool",
          "name": "comments",
          "type": "bool"
        }
      ],
      "name": "changePostComments",
      "outputs": [],
      "stateMutability": "nonpayable",
      "type": "function"
    },
    {
      "inputs": [
        {
          "internalType": "bytes32",
          "name": "postId",
          "type": "bytes32"
        }
      ],
      "name": "publishPost",
      "outputs": [],
      "stateMutability": "nonpayable",
      "type": "function"
    },
    {
      "inputs": [
        {
          "internalType": "bytes32",
          "name": "postId",
          "type": "bytes32"
        }
      ],
      "name": "unPublishPost",
      "outputs": [],
      "stateMutability": "nonpayable",
      "type": "function"
    },
    {
      "inputs": [
        {
          "internalType": "string",
          "name": "_slug",
          "type": "string"
        }
      ],
      "name": "getPostBySlug",
      "outputs": [
        {
          "internalType": "bytes32",
          "name": "postId",
          "type": "bytes32"
        },
        {
          "internalType": "string",
          "name": "title",
          "type": "string"
        },
        {
          "internalType": "string",
          "name": "image",
          "type": "string"
        },
        {
          "internalType": "string",
          "name": "slug",
          "type": "string"
        },
        {
          "internalType": "string",
          "name": "synopsis",
          "type": "string"
        },
        {
          "internalType": "bool",
          "name": "nsfw",
          "type": "bool"
        },
        {
          "internalType": "bool",
          "name": "comments",
          "type": "bool"
        },
        {
          "internalType": "enum Posts.PostType",
          "name": "postType",
          "type": "uint8"
        },
        {
          "internalType": "string",
          "name": "contentId",
          "type": "string"
        },
        {
          "internalType": "uint256",
          "name": "createdAt",
          "type": "uint256"
        },
        {
          "internalType": "uint256",
          "name": "published",
          "type": "uint256"
        }
      ],
      "stateMutability": "view",
      "type": "function"
    },
    {
      "inputs": [
        {
          "internalType": "bytes32",
          "name": "_postId",
          "type": "bytes32"
        }
      ],
      "name": "getPost",
      "outputs": [
        {
          "internalType": "bytes32",
          "name": "postId",
          "type": "bytes32"
        },
        {
          "internalType": "string",
          "name": "title",
          "type": "string"
        },
        {
          "internalType": "string",
          "name": "image",
          "type": "string"
        },
        {
          "internalType": "string",
          "name": "slug",
          "type": "string"
        },
        {
          "internalType": "string",
          "name": "synopsis",
          "type": "string"
        },
        {
          "internalType": "bool",
          "name": "nsfw",
          "type": "bool"
        },
        {
          "internalType": "bool",
          "name": "comments",
          "type": "bool"
        },
        {
          "internalType": "enum Posts.PostType",
          "name": "postType",
          "type": "uint8"
        },
        {
          "internalType": "string",
          "name": "contentId",
          "type": "string"
        },
        {
          "internalType": "uint256",
          "name": "createdAt",
          "type": "uint256"
        },
        {
          "internalType": "uint256",
          "name": "published",
          "type": "uint256"
        }
      ],
      "stateMutability": "view",
      "type": "function"
    },
    {
      "inputs": [
        {
          "internalType": "uint256",
          "name": "page",
          "type": "uint256"
        }
      ],
      "name": "fetchPaginatedPosts",
      "outputs": [
        {
          "internalType": "bytes32[12]",
          "name": "",
          "type": "bytes32[12]"
        }
      ],
      "stateMutability": "view",
      "type": "function"
    }
  ],
  "bytecode": "0x608060405234801561001057600080fd5b506122e5806100206000396000f3fe608060405234801561001057600080fd5b50600436106100935760003560e01c806393e43bbe1161006657806393e43bbe14610130578063d043bf0f1461016a578063d9a85fc114610186578063efe82731146101c0578063fe639b50146101f057610093565b8063068020a41461009857806355ac0aa5146100b4578063729bd0da146100d05780637c280f5914610100575b600080fd5b6100b260048036038101906100ad91906116ea565b61020c565b005b6100ce60048036038101906100c99190611713565b61041e565b005b6100ea60048036038101906100e59190611891565b610595565b6040516100f79190611c8f565b60405180910390f35b61011a60048036038101906101159190611891565b6105b9565b6040516101279190611c73565b60405180910390f35b61014a600480360381019061014591906116ea565b610706565b6040516101619b9a99989796959493929190611cef565b60405180910390f35b610184600480360381019061017f9190611713565b610b94565b005b6101a0600480360381019061019b919061174f565b610d0b565b6040516101b79b9a99989796959493929190611cef565b60405180910390f35b6101da60048036038101906101d59190611790565b610dcd565b6040516101e79190611c8f565b60405180910390f35b61020a600480360381019061020591906116ea565b61136c565b005b80600060016000838152602001908152602001600020600001541415610267576040517f08c379a000000000000000000000000000000000000000000000000000000000815260040161025e90611e02565b60405180910390fd5b813373ffffffffffffffffffffffffffffffffffffffff16600160008381526020019081526020016000206005016000815481106102ce577f4e487b7100000000000000000000000000000000000000000000000000000000600052603260045260246000fd5b9060005260206000200160009054906101000a900473ffffffffffffffffffffffffffffffffffffffff1673ffffffffffffffffffffffffffffffffffffffff161461034f576040517f08c379a000000000000000000000000000000000000000000000000000000000815260040161034690611e82565b60405180910390fd5b600060016000858152602001908152602001600020600a0160006101000a81548160ff021916908360018111156103af577f4e487b7100000000000000000000000000000000000000000000000000000000600052602160045260246000fd5b02179055507f3f3fed94c49a3085a65783e3477e3cad54324e7098d92af12f0fa13b7e334b1783600160008681526020019081526020016000206001016001600087815260200190815260200160002060020160405161041193929190611dbd565b60405180910390a1505050565b81600060016000838152602001908152602001600020600001541415610479576040517f08c379a000000000000000000000000000000000000000000000000000000000815260040161047090611e02565b60405180910390fd5b823373ffffffffffffffffffffffffffffffffffffffff16600160008381526020019081526020016000206005016000815481106104e0577f4e487b7100000000000000000000000000000000000000000000000000000000600052603260045260246000fd5b9060005260206000200160009054906101000a900473ffffffffffffffffffffffffffffffffffffffff1673ffffffffffffffffffffffffffffffffffffffff1614610561576040517f08c379a000000000000000000000000000000000000000000000000000000000815260040161055890611e82565b60405180910390fd5b826001600086815260200190815260200160002060070160006101000a81548160ff02191690831515021790555050505050565b600081815481106105a557600080fd5b906000526020600020016000915090505481565b6105c161157d565b6000600c90506105cf61157d565b60008414156105dd57600193505b600082856105eb9190611f6c565b90506000600160008054905010156106095782945050505050610701565b816000805490501161062a5760016000805490506106279190611fc6565b91505b60005b8481116106f8576000838154811061066e577f4e487b7100000000000000000000000000000000000000000000000000000000600052603260045260246000fd5b90600052602060002001548483600c81106106b2577f4e487b7100000000000000000000000000000000000000000000000000000000600052603260045260246000fd5b60200201818152505060008314156106c9576106f8565b81806106d49061210f565b92505082806106e2906120b3565b93505080806106f09061210f565b91505061062d565b50829450505050505b919050565b6000606080606080600080600060606000808b600060016000838152602001908152602001600020600001541415610773576040517f08c379a000000000000000000000000000000000000000000000000000000000815260040161076a90611e02565b60405180910390fd5b8c9b50600160008e81526020019081526020016000206001018054610797906120dd565b80601f01602080910402602001604051908101604052809291908181526020018280546107c3906120dd565b80156108105780601f106107e557610100808354040283529160200191610810565b820191906000526020600020905b8154815290600101906020018083116107f357829003601f168201915b50505050509a50600160008e81526020019081526020016000206002018054610838906120dd565b80601f0160208091040260200160405190810160405280929190818152602001828054610864906120dd565b80156108b15780601f10610886576101008083540402835291602001916108b1565b820191906000526020600020905b81548152906001019060200180831161089457829003601f168201915b50505050509850600160008e815260200190815260200160002060040180546108d9906120dd565b80601f0160208091040260200160405190810160405280929190818152602001828054610905906120dd565b80156109525780601f1061092757610100808354040283529160200191610952565b820191906000526020600020905b81548152906001019060200180831161093557829003601f168201915b50505050509950600160008e8152602001908152602001600020600301805461097a906120dd565b80601f01602080910402602001604051908101604052809291908181526020018280546109a6906120dd565b80156109f35780601f106109c8576101008083540402835291602001916109f3565b820191906000526020600020905b8154815290600101906020018083116109d657829003601f168201915b50505050509750600160008e815260200190815260200160002060070160009054906101000a900460ff169650600160008e815260200190815260200160002060070160019054906101000a900460ff169550600160008e815260200190815260200160002060070160029054906101000a900460ff169450600160008e81526020019081526020016000206008018054610a8d906120dd565b80601f0160208091040260200160405190810160405280929190818152602001828054610ab9906120dd565b8015610b065780601f10610adb57610100808354040283529160200191610b06565b820191906000526020600020905b815481529060010190602001808311610ae957829003601f168201915b50505050509350600160008e8152602001908152602001600020600901549250600160008e8152602001908152602001600020600a0160009054906101000a900460ff166001811115610b82577f4e487b7100000000000000000000000000000000000000000000000000000000600052602160045260246000fd5b91505091939597999b90929496989a50565b81600060016000838152602001908152602001600020600001541415610bef576040517f08c379a0000000000000000000000000000000000000000000000000000000008152600401610be690611e02565b60405180910390fd5b823373ffffffffffffffffffffffffffffffffffffffff1660016000838152602001908152602001600020600501600081548110610c56577f4e487b7100000000000000000000000000000000000000000000000000000000600052603260045260246000fd5b9060005260206000200160009054906101000a900473ffffffffffffffffffffffffffffffffffffffff1673ffffffffffffffffffffffffffffffffffffffff1614610cd7576040517f08c379a0000000000000000000000000000000000000000000000000000000008152600401610cce90611e82565b60405180910390fd5b826001600086815260200190815260200160002060070160016101000a81548160ff02191690831515021790555050505050565b6000606080606080600080600060606000808b6000600282604051610d309190611c27565b9081526020016040518091039020541415610d80576040517f08c379a0000000000000000000000000000000000000000000000000000000008152600401610d7790611e22565b60405180910390fd5b610da760028e604051610d939190611c27565b908152602001604051809103902054610706565b9b509b509b509b509b509b509b509b509b509b509b505091939597999b90929496989a50565b6000856000600282604051610de29190611c27565b90815260200160405180910390205414610e31576040517f08c379a0000000000000000000000000000000000000000000000000000000008152600401610e2890611e42565b60405180910390fd5b878733604051602001610e4693929190611c3e565b6040516020818303038152906040528051906020012091506000600160008481526020019081526020016000206000015414610eb7576040517f08c379a0000000000000000000000000000000000000000000000000000000008152600401610eae90611e62565b60405180910390fd5b81600160008481526020019081526020016000206000018190555087600160008481526020019081526020016000206001019080519060200190610efc9291906115a0565b5086600160008481526020019081526020016000206002019080519060200190610f279291906115a0565b5085600160008481526020019081526020016000206004019080519060200190610f529291906115a0565b5084600160008481526020019081526020016000206003019080519060200190610f7d9291906115a0565b50836001600084815260200190815260200160002060070160006101000a81548160ff021916908315150217905550600180600084815260200190815260200160002060070160016101000a81548160ff02191690831515021790555060006001600084815260200190815260200160002060070160026101000a81548160ff0219169083600381111561103a577f4e487b7100000000000000000000000000000000000000000000000000000000600052602160045260246000fd5b0217905550826001600084815260200190815260200160002060080190805190602001906110699291906115a0565b504260016000848152602001908152602001600020600901819055506001806000848152602001908152602001600020600a0160006101000a81548160ff021916908360018111156110e4577f4e487b7100000000000000000000000000000000000000000000000000000000600052602160045260246000fd5b021790555060016000838152602001908152602001600020600501339080600181540180825580915050600190039060005260206000200160009091909190916101000a81548173ffffffffffffffffffffffffffffffffffffffff021916908373ffffffffffffffffffffffffffffffffffffffff16021790555060405180606001604052803373ffffffffffffffffffffffffffffffffffffffff168152602001600115158152602001600115158152506001600084815260200190815260200160002060060160003373ffffffffffffffffffffffffffffffffffffffff1673ffffffffffffffffffffffffffffffffffffffff16815260200190815260200160002060008201518160000160006101000a81548173ffffffffffffffffffffffffffffffffffffffff021916908373ffffffffffffffffffffffffffffffffffffffff16021790555060208201518160000160146101000a81548160ff02191690831515021790555060408201518160000160156101000a81548160ff021916908315150217905550905050816002886040516112859190611c27565b908152602001604051809103902081905550600360003373ffffffffffffffffffffffffffffffffffffffff1673ffffffffffffffffffffffffffffffffffffffff16815260200190815260200160002082908060018154018082558091505060019003906000526020600020016000909190919091505560008290806001815401808255809150506001900390600052602060002001600090919091909150557f29a21b7f0b67a6e288b021ea73f30160e1f4abc8c24dbe956ef95aaa4643d45a82898960405161135993929190611caa565b60405180910390a1509695505050505050565b806000600160008381526020019081526020016000206000015414156113c7576040517f08c379a00000000000000000000000000000000000000000000000000000000081526004016113be90611e02565b60405180910390fd5b813373ffffffffffffffffffffffffffffffffffffffff166001600083815260200190815260200160002060050160008154811061142e577f4e487b7100000000000000000000000000000000000000000000000000000000600052603260045260246000fd5b9060005260206000200160009054906101000a900473ffffffffffffffffffffffffffffffffffffffff1673ffffffffffffffffffffffffffffffffffffffff16146114af576040517f08c379a00000000000000000000000000000000000000000000000000000000081526004016114a690611e82565b60405180910390fd5b6001806000858152602001908152602001600020600a0160006101000a81548160ff0219169083600181111561150e577f4e487b7100000000000000000000000000000000000000000000000000000000600052602160045260246000fd5b02179055507f29a21b7f0b67a6e288b021ea73f30160e1f4abc8c24dbe956ef95aaa4643d45a83600160008681526020019081526020016000206001016001600087815260200190815260200160002060020160405161157093929190611dbd565b60405180910390a1505050565b604051806101800160405280600c90602082028036833780820191505090505090565b8280546115ac906120dd565b90600052602060002090601f0160209004810192826115ce5760008555611615565b82601f106115e757805160ff1916838001178555611615565b82800160010185558215611615579182015b828111156116145782518255916020019190600101906115f9565b5b5090506116229190611626565b5090565b5b8082111561163f576000816000905550600101611627565b5090565b600061165661165184611ed3565b611ea2565b90508281526020810184848401111561166e57600080fd5b611679848285612071565b509392505050565b6000813590506116908161226a565b92915050565b6000813590506116a581612281565b92915050565b600082601f8301126116bc57600080fd5b81356116cc848260208601611643565b91505092915050565b6000813590506116e481612298565b92915050565b6000602082840312156116fc57600080fd5b600061170a84828501611696565b91505092915050565b6000806040838503121561172657600080fd5b600061173485828601611696565b925050602061174585828601611681565b9150509250929050565b60006020828403121561176157600080fd5b600082013567ffffffffffffffff81111561177b57600080fd5b611787848285016116ab565b91505092915050565b60008060008060008060c087890312156117a957600080fd5b600087013567ffffffffffffffff8111156117c357600080fd5b6117cf89828a016116ab565b965050602087013567ffffffffffffffff8111156117ec57600080fd5b6117f889828a016116ab565b955050604087013567ffffffffffffffff81111561181557600080fd5b61182189828a016116ab565b945050606087013567ffffffffffffffff81111561183e57600080fd5b61184a89828a016116ab565b935050608061185b89828a01611681565b92505060a087013567ffffffffffffffff81111561187857600080fd5b61188489828a016116ab565b9150509295509295509295565b6000602082840312156118a357600080fd5b60006118b1848285016116d5565b91505092915050565b60006118c6838361194f565b60208301905092915050565b6118e36118de82611ffa565b612158565b82525050565b6118f281611f22565b6118fc8184611f45565b925061190782611f03565b8060005b8381101561193857815161191f87826118ba565b965061192a83611f38565b92505060018101905061190b565b505050505050565b6119498161200c565b82525050565b61195881612018565b82525050565b61196781612018565b82525050565b6119768161205f565b82525050565b600061198782611f2d565b6119918185611f50565b93506119a1818560208601612080565b6119aa81612238565b840191505092915050565b60006119c082611f2d565b6119ca8185611f61565b93506119da818560208601612080565b80840191505092915050565b600081546119f3816120dd565b6119fd8186611f50565b94506001821660008114611a185760018114611a2a57611a5d565b60ff1983168652602086019350611a5d565b611a3385611f0d565b60005b83811015611a5557815481890152600182019150602081019050611a36565b808801955050505b50505092915050565b6000611a73601883611f50565b91507f5468697320706f737420646f65736e27742065786973742e00000000000000006000830152602082019050919050565b6000611ab3601883611f50565b91507f5468697320706f737420646f6573206e6f7420657869737400000000000000006000830152602082019050919050565b6000611af3602a83611f50565b91507f506c656173652063686f6f7365206120756e6971756520736c756720666f722060008301527f796f757220706f73742e000000000000000000000000000000000000000000006020830152604082019050919050565b6000611b59602283611f50565b91507f4120706f73742077697468207468697320494420616c7265616479206578697360008301527f74730000000000000000000000000000000000000000000000000000000000006020830152604082019050919050565b6000611bbf602d83611f50565b91507f596f7520617265206e6f7420746865207072696d61727920617574686f72206660008301527f6f72207468697320706f73742e000000000000000000000000000000000000006020830152604082019050919050565b611c2181612055565b82525050565b6000611c3382846119b5565b915081905092915050565b6000611c4a82866119b5565b9150611c5682856119b5565b9150611c6282846118d2565b601482019150819050949350505050565b600061018082019050611c8960008301846118e9565b92915050565b6000602082019050611ca4600083018461195e565b92915050565b6000606082019050611cbf600083018661195e565b8181036020830152611cd1818561197c565b90508181036040830152611ce5818461197c565b9050949350505050565b600061016082019050611d05600083018e61195e565b8181036020830152611d17818d61197c565b90508181036040830152611d2b818c61197c565b90508181036060830152611d3f818b61197c565b90508181036080830152611d53818a61197c565b9050611d6260a0830189611940565b611d6f60c0830188611940565b611d7c60e083018761196d565b818103610100830152611d8f818661197c565b9050611d9f610120830185611c18565b611dad610140830184611c18565b9c9b505050505050505050505050565b6000606082019050611dd2600083018661195e565b8181036020830152611de481856119e6565b90508181036040830152611df881846119e6565b9050949350505050565b60006020820190508181036000830152611e1b81611a66565b9050919050565b60006020820190508181036000830152611e3b81611aa6565b9050919050565b60006020820190508181036000830152611e5b81611ae6565b9050919050565b60006020820190508181036000830152611e7b81611b4c565b9050919050565b60006020820190508181036000830152611e9b81611bb2565b9050919050565b6000604051905081810181811067ffffffffffffffff82111715611ec957611ec8612209565b5b8060405250919050565b600067ffffffffffffffff821115611eee57611eed612209565b5b601f19601f8301169050602081019050919050565b6000819050919050565b60008190508160005260206000209050919050565b6000600c9050919050565b600081519050919050565b6000602082019050919050565b600081905092915050565b600082825260208201905092915050565b600081905092915050565b6000611f7782612055565b9150611f8283612055565b9250817fffffffffffffffffffffffffffffffffffffffffffffffffffffffffffffffff0483118215151615611fbb57611fba61217c565b5b828202905092915050565b6000611fd182612055565b9150611fdc83612055565b925082821015611fef57611fee61217c565b5b828203905092915050565b600061200582612035565b9050919050565b60008115159050919050565b6000819050919050565b600081905061203082612256565b919050565b600073ffffffffffffffffffffffffffffffffffffffff82169050919050565b6000819050919050565b600061206a82612022565b9050919050565b82818337600083830152505050565b60005b8381101561209e578082015181840152602081019050612083565b838111156120ad576000848401525b50505050565b60006120be82612055565b915060008214156120d2576120d161217c565b5b600182039050919050565b600060028204905060018216806120f557607f821691505b60208210811415612109576121086121da565b5b50919050565b600061211a82612055565b91507fffffffffffffffffffffffffffffffffffffffffffffffffffffffffffffffff82141561214d5761214c61217c565b5b600182019050919050565b60006121638261216a565b9050919050565b600061217582612249565b9050919050565b7f4e487b7100000000000000000000000000000000000000000000000000000000600052601160045260246000fd5b7f4e487b7100000000000000000000000000000000000000000000000000000000600052602160045260246000fd5b7f4e487b7100000000000000000000000000000000000000000000000000000000600052602260045260246000fd5b7f4e487b7100000000000000000000000000000000000000000000000000000000600052604160045260246000fd5b6000601f19601f8301169050919050565b60008160601b9050919050565b60048110612267576122666121ab565b5b50565b6122738161200c565b811461227e57600080fd5b50565b61228a81612018565b811461229557600080fd5b50565b6122a181612055565b81146122ac57600080fd5b5056fea2646970667358221220b5d1f9a0953cc5a5bb262f96169d468a8540b9bf325e87394b485e22dac7abc664736f6c63430008000033",
  "immutableReferences": {},
  "source": "// SPDX-License-Identifier: UNLICENSED\npragma solidity ^0.8.0;\n\ncontract Posts {\n    enum PostType {\n        text,\n        image,\n        video,\n        document\n    }\n    enum PostStatus {\n        unpublished,\n        published\n    }\n\n    struct Author {\n        address authorAddress;\n        bool preapproved; // approval from other approved authors of the post\n        bool approved; // approval from this specific author\n    }\n\n    struct Post {\n        bytes32 id;\n        string title;\n        string slug;\n        string synopsis;\n        string image;\n        address[] authors;\n        mapping(address => Author) authorsParams;\n        bool nsfw;\n        bool comments;\n        PostType postType;\n        string contentId;\n        uint256 createdAt;\n        PostStatus status;\n    }\n\n    bytes32[] public postsArray;\n    mapping(bytes32 => Post) postsMap;\n    mapping(string => bytes32) postsBySlug;\n    mapping(address => bytes32[]) postsByAuthor;\n\n    // events\n    event postCreated(bytes32 id, string title, address poster);\n    event postPublished(bytes32 id, string title, string slug);\n    event postUnpublished(bytes32 id, string title, string slug);\n    event postUnlisted(bytes32 id, string title, string slug);\n\n    // modifiers\n    modifier isUniqueSlug(string memory slug) {\n        require(\n            postsBySlug[slug] == \"\",\n            \"Please choose a unique slug for your post.\"\n        );\n        _;\n    }\n\n    modifier postWithSlugExists(string memory slug) {\n        require(postsBySlug[slug] != \"\", \"This post does not exist\");\n        _;\n    }\n\n    modifier postExists(bytes32 id) {\n        require(postsMap[id].id != \"\", \"This post doesn't exist.\");\n        _;\n    }\n\n    modifier isPostAuthor(bytes32 id) {\n        require(\n            postsMap[id].authors[0] == msg.sender,\n            \"You are not the primary author for this post.\"\n        );\n        _;\n    }\n\n    // functions\n    function createNewPost(\n        string memory title,\n        string memory slug,\n        string memory image,\n        string memory synopsis,\n        bool nsfw,\n        string memory contentId\n    ) public isUniqueSlug(slug) returns (bytes32 postId) {\n        postId = keccak256(abi.encodePacked(title, slug, msg.sender));\n        require(\n            postsMap[postId].id == \"\",\n            \"A post with this ID already exists\"\n        );\n\n        postsMap[postId].id = postId;\n        postsMap[postId].title = title;\n        postsMap[postId].slug = slug;\n        postsMap[postId].image = image;\n        postsMap[postId].synopsis = synopsis;\n        postsMap[postId].nsfw = nsfw;\n        postsMap[postId].comments = true;\n        postsMap[postId].postType = PostType.text;\n        postsMap[postId].contentId = contentId;\n        postsMap[postId].createdAt = block.timestamp;\n        postsMap[postId].status = PostStatus.published;\n        // set up msg.sender as main author of post\n        postsMap[postId].authors.push(msg.sender);\n        postsMap[postId].authorsParams[msg.sender] = Author({\n            authorAddress: msg.sender,\n            preapproved: true,\n            approved: true\n        });\n\n        // setup for slug based search (like a traditional blog)\n        postsBySlug[slug] = postId;\n        // setup for fetching author profile\n        postsByAuthor[msg.sender].push(postId);\n        // setup posts array\n        postsArray.push(postId);\n\n        // emit event for post published\n        emit postPublished(postId, title, slug);\n    }\n\n    function changePostNSFWStatus(bytes32 postId, bool nsfw)\n        public\n        postExists(postId)\n        isPostAuthor(postId)\n    {\n        postsMap[postId].nsfw = nsfw;\n    }\n\n    function changePostComments(bytes32 postId, bool comments)\n        public\n        postExists(postId)\n        isPostAuthor(postId)\n    {\n        postsMap[postId].comments = comments;\n    }\n\n    function publishPost(bytes32 postId)\n        public\n        postExists(postId)\n        isPostAuthor(postId)\n    {\n        postsMap[postId].status = PostStatus.published;\n        emit postPublished(\n            postId,\n            postsMap[postId].title,\n            postsMap[postId].slug\n        );\n    }\n\n    function unPublishPost(bytes32 postId)\n        public\n        postExists(postId)\n        isPostAuthor(postId)\n    {\n        postsMap[postId].status = PostStatus.unpublished;\n        emit postUnpublished(\n            postId,\n            postsMap[postId].title,\n            postsMap[postId].slug\n        );\n    }\n\n    function getPostBySlug(string memory _slug)\n        public\n        view\n        postWithSlugExists(_slug)\n        returns (\n            bytes32 postId,\n            string memory title,\n            string memory image,\n            string memory slug,\n            string memory synopsis,\n            bool nsfw,\n            bool comments,\n            PostType postType,\n            string memory contentId,\n            uint256 createdAt,\n            uint256 published\n        )\n    {\n        return getPost(postsBySlug[_slug]);\n    }\n\n    function getPost(bytes32 _postId)\n        public\n        view\n        postExists(_postId)\n        returns (\n            bytes32 postId,\n            string memory title,\n            string memory image,\n            string memory slug,\n            string memory synopsis,\n            bool nsfw,\n            bool comments,\n            PostType postType,\n            string memory contentId,\n            uint256 createdAt,\n            uint256 published\n        )\n    {\n        postId = _postId;\n        title = postsMap[_postId].title;\n        slug = postsMap[_postId].slug;\n        image = postsMap[_postId].image;\n        synopsis = postsMap[_postId].synopsis;\n        nsfw = postsMap[_postId].nsfw;\n        comments = postsMap[_postId].comments;\n        postType = postsMap[_postId].postType;\n        contentId = postsMap[_postId].contentId;\n        createdAt = postsMap[_postId].createdAt;\n        published = uint256(postsMap[_postId].status);\n    }\n\n    function commentsEnabledForPost(bytes32 _postId)\n        internal\n        view\n        postExists(_postId)\n        returns (bool comments)\n    {\n        comments = postsMap[_postId].comments;\n    }\n\n    function fetchPaginatedPosts(uint256 page)\n        public\n        view\n        returns (bytes32[12] memory)\n    {\n        uint256 totalCount = 12;\n        bytes32[12] memory posts;\n        if (page == 0) {\n            page = 1;\n        }\n        uint256 startIndex = page * totalCount;\n        uint256 counter = 0;\n\n        // empty state\n        if (postsArray.length < 1) {\n            return posts;\n        }\n\n        // change start if total posts smaller than specified index\n        if (postsArray.length <= startIndex) {\n            startIndex = postsArray.length - 1;\n        }\n\n        for (uint256 index = 0; index <= totalCount; index++) {\n            posts[counter] = postsArray[startIndex];\n            if (startIndex == 0) {\n                break;\n            }\n            counter++;\n            startIndex--;\n        }\n\n        return posts;\n    }\n}\n",
  "sourcePath": "/Users/ghostffcode/Documents/UpkitStudio/etherblog/contracts/subcontracts/Posts.sol",
  "compiler": {
    "name": "solc",
    "version": "0.8.0+commit.c7dfd78e.Emscripten.clang"
  },
  "schemaVersion": "3.4.1",
  "updatedAt": "2021-07-19T17:02:56.611Z",
  "devdoc": {
    "kind": "dev",
    "methods": {},
    "version": 1
  },
  "userdoc": {
    "kind": "user",
    "methods": {},
    "version": 1
  }
}