{
  "contractName": "Authors",
  "abi": [
    {
      "anonymous": false,
      "inputs": [
        {
          "indexed": false,
          "internalType": "string",
          "name": "name",
          "type": "string"
        },
        {
          "indexed": false,
          "internalType": "string",
          "name": "username",
          "type": "string"
        },
        {
          "indexed": false,
          "internalType": "address",
          "name": "authorsAddress",
          "type": "address"
        }
      ],
      "name": "authorAdded",
      "type": "event"
    },
    {
      "inputs": [
        {
          "internalType": "string",
          "name": "name",
          "type": "string"
        },
        {
          "internalType": "string",
          "name": "username",
          "type": "string"
        },
        {
          "internalType": "string",
          "name": "website",
          "type": "string"
        },
        {
          "internalType": "string",
          "name": "avatar",
          "type": "string"
        }
      ],
      "name": "authorCreateProfile",
      "outputs": [],
      "stateMutability": "nonpayable",
      "type": "function"
    },
    {
      "inputs": [
        {
          "internalType": "string",
          "name": "name",
          "type": "string"
        },
        {
          "internalType": "string",
          "name": "username",
          "type": "string"
        },
        {
          "internalType": "string",
          "name": "website",
          "type": "string"
        },
        {
          "internalType": "string",
          "name": "avatar",
          "type": "string"
        }
      ],
      "name": "authorUpdateProfile",
      "outputs": [],
      "stateMutability": "nonpayable",
      "type": "function"
    },
    {
      "inputs": [
        {
          "internalType": "address",
          "name": "userAddress",
          "type": "address"
        }
      ],
      "name": "authorFetchProfileByAddress",
      "outputs": [
        {
          "internalType": "string",
          "name": "name",
          "type": "string"
        },
        {
          "internalType": "string",
          "name": "username",
          "type": "string"
        },
        {
          "internalType": "string",
          "name": "avatar",
          "type": "string"
        },
        {
          "internalType": "string",
          "name": "website",
          "type": "string"
        }
      ],
      "stateMutability": "view",
      "type": "function"
    },
    {
      "inputs": [
        {
          "internalType": "string",
          "name": "_username",
          "type": "string"
        }
      ],
      "name": "authorFetchProfileByUsername",
      "outputs": [
        {
          "internalType": "string",
          "name": "name",
          "type": "string"
        },
        {
          "internalType": "string",
          "name": "username",
          "type": "string"
        },
        {
          "internalType": "string",
          "name": "avatar",
          "type": "string"
        },
        {
          "internalType": "string",
          "name": "website",
          "type": "string"
        }
      ],
      "stateMutability": "view",
      "type": "function"
    }
  ],
  "bytecode": "0x608060405234801561001057600080fd5b50611159806100206000396000f3fe608060405234801561001057600080fd5b506004361061004c5760003560e01c8063504ada3d1461005157806379e192781461006d578063cb1dd74414610089578063dd7cbfbc146100bc575b600080fd5b61006b60048036038101906100669190610c6a565b6100ef565b005b61008760048036038101906100829190610c6a565b6103ae565b005b6100a3600480360381019061009e9190610c29565b6103fb565b6040516100b39493929190610ece565b60405180910390f35b6100d660048036038101906100d19190610c00565b6107b3565b6040516100e69493929190610ece565b60405180910390f35b82600073ffffffffffffffffffffffffffffffffffffffff166001826040516101189190610e72565b908152602001604051809103902060009054906101000a900473ffffffffffffffffffffffffffffffffffffffff1673ffffffffffffffffffffffffffffffffffffffff1614806101d257503373ffffffffffffffffffffffffffffffffffffffff1660018260405161018b9190610e72565b908152602001604051809103902060009054906101000a900473ffffffffffffffffffffffffffffffffffffffff1673ffffffffffffffffffffffffffffffffffffffff16145b610211576040517f08c379a000000000000000000000000000000000000000000000000000000000815260040161020890610f2f565b60405180910390fd5b6040518060a001604052808681526020018381526020018481526020018581526020013373ffffffffffffffffffffffffffffffffffffffff168152506000803373ffffffffffffffffffffffffffffffffffffffff1673ffffffffffffffffffffffffffffffffffffffff16815260200190815260200160002060008201518160000190805190602001906102a8929190610ae0565b5060208201518160010190805190602001906102c5929190610ae0565b5060408201518160020190805190602001906102e2929190610ae0565b5060608201518160030190805190602001906102ff929190610ae0565b5060808201518160040160006101000a81548173ffffffffffffffffffffffffffffffffffffffff021916908373ffffffffffffffffffffffffffffffffffffffff1602179055509050503360018560405161035b9190610e72565b908152602001604051809103902060006101000a81548173ffffffffffffffffffffffffffffffffffffffff021916908373ffffffffffffffffffffffffffffffffffffffff1602179055505050505050565b6103ba848484846100ef565b7fef47bb899dbff275b35f1e639da3065cc8e640ca71b09a9aeec65c77006ddc5c8484336040516103ed93929190610e89565b60405180910390a150505050565b60608060608060006001866040516104139190610e72565b908152602001604051809103902060009054906101000a900473ffffffffffffffffffffffffffffffffffffffff169050600073ffffffffffffffffffffffffffffffffffffffff168173ffffffffffffffffffffffffffffffffffffffff1614156104b4576040517f08c379a00000000000000000000000000000000000000000000000000000000081526004016104ab90610f4f565b60405180910390fd5b6107a36000808373ffffffffffffffffffffffffffffffffffffffff1673ffffffffffffffffffffffffffffffffffffffff1681526020019081526020016000206040518060a00160405290816000820180546105109061106b565b80601f016020809104026020016040519081016040528092919081815260200182805461053c9061106b565b80156105895780601f1061055e57610100808354040283529160200191610589565b820191906000526020600020905b81548152906001019060200180831161056c57829003601f168201915b505050505081526020016001820180546105a29061106b565b80601f01602080910402602001604051908101604052809291908181526020018280546105ce9061106b565b801561061b5780601f106105f05761010080835404028352916020019161061b565b820191906000526020600020905b8154815290600101906020018083116105fe57829003601f168201915b505050505081526020016002820180546106349061106b565b80601f01602080910402602001604051908101604052809291908181526020018280546106609061106b565b80156106ad5780601f10610682576101008083540402835291602001916106ad565b820191906000526020600020905b81548152906001019060200180831161069057829003601f168201915b505050505081526020016003820180546106c69061106b565b80601f01602080910402602001604051908101604052809291908181526020018280546106f29061106b565b801561073f5780601f106107145761010080835404028352916020019161073f565b820191906000526020600020905b81548152906001019060200180831161072257829003601f168201915b505050505081526020016004820160009054906101000a900473ffffffffffffffffffffffffffffffffffffffff1673ffffffffffffffffffffffffffffffffffffffff1673ffffffffffffffffffffffffffffffffffffffff1681525050610ab7565b9450945094509450509193509193565b606080606080610aa86000808773ffffffffffffffffffffffffffffffffffffffff1673ffffffffffffffffffffffffffffffffffffffff1681526020019081526020016000206040518060a00160405290816000820180546108159061106b565b80601f01602080910402602001604051908101604052809291908181526020018280546108419061106b565b801561088e5780601f106108635761010080835404028352916020019161088e565b820191906000526020600020905b81548152906001019060200180831161087157829003601f168201915b505050505081526020016001820180546108a79061106b565b80601f01602080910402602001604051908101604052809291908181526020018280546108d39061106b565b80156109205780601f106108f557610100808354040283529160200191610920565b820191906000526020600020905b81548152906001019060200180831161090357829003601f168201915b505050505081526020016002820180546109399061106b565b80601f01602080910402602001604051908101604052809291908181526020018280546109659061106b565b80156109b25780601f10610987576101008083540402835291602001916109b2565b820191906000526020600020905b81548152906001019060200180831161099557829003601f168201915b505050505081526020016003820180546109cb9061106b565b80601f01602080910402602001604051908101604052809291908181526020018280546109f79061106b565b8015610a445780601f10610a1957610100808354040283529160200191610a44565b820191906000526020600020905b815481529060010190602001808311610a2757829003601f168201915b505050505081526020016004820160009054906101000a900473ffffffffffffffffffffffffffffffffffffffff1673ffffffffffffffffffffffffffffffffffffffff1673ffffffffffffffffffffffffffffffffffffffff1681525050610ab7565b93509350935093509193509193565b606080606080846000015193508460600151925084602001519150846040015190509193509193565b828054610aec9061106b565b90600052602060002090601f016020900481019282610b0e5760008555610b55565b82601f10610b2757805160ff1916838001178555610b55565b82800160010185558215610b55579182015b82811115610b54578251825591602001919060010190610b39565b5b509050610b629190610b66565b5090565b5b80821115610b7f576000816000905550600101610b67565b5090565b6000610b96610b9184610fa0565b610f6f565b905082815260208101848484011115610bae57600080fd5b610bb9848285611029565b509392505050565b600081359050610bd08161110c565b92915050565b600082601f830112610be757600080fd5b8135610bf7848260208601610b83565b91505092915050565b600060208284031215610c1257600080fd5b6000610c2084828501610bc1565b91505092915050565b600060208284031215610c3b57600080fd5b600082013567ffffffffffffffff811115610c5557600080fd5b610c6184828501610bd6565b91505092915050565b60008060008060808587031215610c8057600080fd5b600085013567ffffffffffffffff811115610c9a57600080fd5b610ca687828801610bd6565b945050602085013567ffffffffffffffff811115610cc357600080fd5b610ccf87828801610bd6565b935050604085013567ffffffffffffffff811115610cec57600080fd5b610cf887828801610bd6565b925050606085013567ffffffffffffffff811115610d1557600080fd5b610d2187828801610bd6565b91505092959194509250565b610d3681610ff7565b82525050565b6000610d4782610fd0565b610d518185610fdb565b9350610d61818560208601611038565b610d6a816110fb565b840191505092915050565b6000610d8082610fd0565b610d8a8185610fec565b9350610d9a818560208601611038565b80840191505092915050565b6000610db3602883610fdb565b91507f596f752063616e206e6f74206d616b65206368616e67657320746f207468697360008301527f2070726f66696c650000000000000000000000000000000000000000000000006020830152604082019050919050565b6000610e19602383610fdb565b91507f4e6f2070726f66696c652077697468207468617420757365726e616d6520666f60008301527f756e6400000000000000000000000000000000000000000000000000000000006020830152604082019050919050565b6000610e7e8284610d75565b915081905092915050565b60006060820190508181036000830152610ea38186610d3c565b90508181036020830152610eb78185610d3c565b9050610ec66040830184610d2d565b949350505050565b60006080820190508181036000830152610ee88187610d3c565b90508181036020830152610efc8186610d3c565b90508181036040830152610f108185610d3c565b90508181036060830152610f248184610d3c565b905095945050505050565b60006020820190508181036000830152610f4881610da6565b9050919050565b60006020820190508181036000830152610f6881610e0c565b9050919050565b6000604051905081810181811067ffffffffffffffff82111715610f9657610f956110cc565b5b8060405250919050565b600067ffffffffffffffff821115610fbb57610fba6110cc565b5b601f19601f8301169050602081019050919050565b600081519050919050565b600082825260208201905092915050565b600081905092915050565b600061100282611009565b9050919050565b600073ffffffffffffffffffffffffffffffffffffffff82169050919050565b82818337600083830152505050565b60005b8381101561105657808201518184015260208101905061103b565b83811115611065576000848401525b50505050565b6000600282049050600182168061108357607f821691505b602082108114156110975761109661109d565b5b50919050565b7f4e487b7100000000000000000000000000000000000000000000000000000000600052602260045260246000fd5b7f4e487b7100000000000000000000000000000000000000000000000000000000600052604160045260246000fd5b6000601f19601f8301169050919050565b61111581610ff7565b811461112057600080fd5b5056fea26469706673582212209c65958c3e7574b7bab807b0610cba8243faed827b262802c0bb8e14077ada1c64736f6c63430008000033",
  "immutableReferences": {},
  "source": "// SPDX-License-Identifier: UNLICENSED\npragma solidity ^0.8.0;\n\ncontract Authors {\n    struct User {\n        string name;\n        string avatar;\n        string website;\n        string username;\n        address userAddress;\n    }\n\n    mapping(address => User) authorsMap;\n    mapping(string => address) authorsUsernameToAddressMap;\n\n    modifier isEmptyOrOwnProfile(string memory username) {\n        // make sure profile doesn't exist or is already owner of profile\n        require(\n            authorsUsernameToAddressMap[username] == address(0) ||\n                authorsUsernameToAddressMap[username] == msg.sender,\n            \"You can not make changes to this profile\"\n        );\n        _;\n    }\n\n    event authorAdded(string name, string username, address authorsAddress);\n\n    function authorCreateProfile(\n        string memory name,\n        string memory username,\n        string memory website,\n        string memory avatar\n    ) public {\n        authorUpdateProfile(name, username, website, avatar);\n        emit authorAdded(name, username, msg.sender);\n    }\n\n    function authorUpdateProfile(\n        string memory name,\n        string memory username,\n        string memory website,\n        string memory avatar\n    ) public isEmptyOrOwnProfile(username) {\n        authorsMap[msg.sender] = User({\n            name: name,\n            username: username,\n            avatar: avatar,\n            website: website,\n            userAddress: msg.sender\n        });\n        authorsUsernameToAddressMap[username] = msg.sender;\n    }\n\n    function authorFetchProfile(User memory profile)\n        private\n        pure\n        returns (\n            string memory name,\n            string memory username,\n            string memory avatar,\n            string memory website\n        )\n    {\n        name = profile.name;\n        username = profile.username;\n        avatar = profile.avatar;\n        website = profile.website;\n    }\n\n    function authorFetchProfileByAddress(address userAddress)\n        public\n        view\n        returns (\n            string memory name,\n            string memory username,\n            string memory avatar,\n            string memory website\n        )\n    {\n        return authorFetchProfile(authorsMap[userAddress]);\n    }\n\n    function authorFetchProfileByUsername(string memory _username)\n        public\n        view\n        returns (\n            string memory name,\n            string memory username,\n            string memory avatar,\n            string memory website\n        )\n    {\n        address author = authorsUsernameToAddressMap[_username];\n        require(author != address(0), \"No profile with that username found\");\n        return authorFetchProfile(authorsMap[author]);\n    }\n}\n",
  "sourcePath": "/Users/ghostffcode/Documents/UpkitStudio/etherblog/contracts/subcontracts/Authors.sol",
  "compiler": {
    "name": "solc",
    "version": "0.8.0+commit.c7dfd78e.Emscripten.clang"
  },
  "schemaVersion": "3.4.1",
  "updatedAt": "2021-07-16T12:17:46.269Z",
  "devdoc": {
    "kind": "dev",
    "methods": {},
    "version": 1
  },
  "userdoc": {
    "kind": "user",
    "methods": {},
    "version": 1
  }
}