{
  "contractName": "BlogControl",
  "abi": [
    {
      "inputs": [],
      "stateMutability": "nonpayable",
      "type": "constructor"
    },
    {
      "anonymous": false,
      "inputs": [
        {
          "indexed": true,
          "internalType": "bytes32",
          "name": "role",
          "type": "bytes32"
        },
        {
          "indexed": true,
          "internalType": "bytes32",
          "name": "previousAdminRole",
          "type": "bytes32"
        },
        {
          "indexed": true,
          "internalType": "bytes32",
          "name": "newAdminRole",
          "type": "bytes32"
        }
      ],
      "name": "RoleAdminChanged",
      "type": "event"
    },
    {
      "anonymous": false,
      "inputs": [
        {
          "indexed": true,
          "internalType": "bytes32",
          "name": "role",
          "type": "bytes32"
        },
        {
          "indexed": true,
          "internalType": "address",
          "name": "account",
          "type": "address"
        },
        {
          "indexed": true,
          "internalType": "address",
          "name": "sender",
          "type": "address"
        }
      ],
      "name": "RoleGranted",
      "type": "event"
    },
    {
      "anonymous": false,
      "inputs": [
        {
          "indexed": true,
          "internalType": "bytes32",
          "name": "role",
          "type": "bytes32"
        },
        {
          "indexed": true,
          "internalType": "address",
          "name": "account",
          "type": "address"
        },
        {
          "indexed": true,
          "internalType": "address",
          "name": "sender",
          "type": "address"
        }
      ],
      "name": "RoleRevoked",
      "type": "event"
    },
    {
      "anonymous": false,
      "inputs": [
        {
          "indexed": false,
          "internalType": "address",
          "name": "moderator",
          "type": "address"
        }
      ],
      "name": "moderatorAdded",
      "type": "event"
    },
    {
      "anonymous": false,
      "inputs": [
        {
          "indexed": false,
          "internalType": "address",
          "name": "moderator",
          "type": "address"
        }
      ],
      "name": "moderatorRemoved",
      "type": "event"
    },
    {
      "inputs": [],
      "name": "DEFAULT_ADMIN_ROLE",
      "outputs": [
        {
          "internalType": "bytes32",
          "name": "",
          "type": "bytes32"
        }
      ],
      "stateMutability": "view",
      "type": "function"
    },
    {
      "inputs": [
        {
          "internalType": "bytes32",
          "name": "role",
          "type": "bytes32"
        }
      ],
      "name": "getRoleAdmin",
      "outputs": [
        {
          "internalType": "bytes32",
          "name": "",
          "type": "bytes32"
        }
      ],
      "stateMutability": "view",
      "type": "function"
    },
    {
      "inputs": [
        {
          "internalType": "bytes32",
          "name": "role",
          "type": "bytes32"
        },
        {
          "internalType": "address",
          "name": "account",
          "type": "address"
        }
      ],
      "name": "grantRole",
      "outputs": [],
      "stateMutability": "nonpayable",
      "type": "function"
    },
    {
      "inputs": [
        {
          "internalType": "bytes32",
          "name": "role",
          "type": "bytes32"
        },
        {
          "internalType": "address",
          "name": "account",
          "type": "address"
        }
      ],
      "name": "hasRole",
      "outputs": [
        {
          "internalType": "bool",
          "name": "",
          "type": "bool"
        }
      ],
      "stateMutability": "view",
      "type": "function"
    },
    {
      "inputs": [
        {
          "internalType": "bytes32",
          "name": "role",
          "type": "bytes32"
        },
        {
          "internalType": "address",
          "name": "account",
          "type": "address"
        }
      ],
      "name": "renounceRole",
      "outputs": [],
      "stateMutability": "nonpayable",
      "type": "function"
    },
    {
      "inputs": [
        {
          "internalType": "bytes32",
          "name": "role",
          "type": "bytes32"
        },
        {
          "internalType": "address",
          "name": "account",
          "type": "address"
        }
      ],
      "name": "revokeRole",
      "outputs": [],
      "stateMutability": "nonpayable",
      "type": "function"
    },
    {
      "inputs": [
        {
          "internalType": "bytes4",
          "name": "interfaceId",
          "type": "bytes4"
        }
      ],
      "name": "supportsInterface",
      "outputs": [
        {
          "internalType": "bool",
          "name": "",
          "type": "bool"
        }
      ],
      "stateMutability": "view",
      "type": "function"
    },
    {
      "inputs": [
        {
          "internalType": "address",
          "name": "moderator",
          "type": "address"
        }
      ],
      "name": "addModerator",
      "outputs": [],
      "stateMutability": "nonpayable",
      "type": "function"
    },
    {
      "inputs": [
        {
          "internalType": "address",
          "name": "moderator",
          "type": "address"
        }
      ],
      "name": "removeModerator",
      "outputs": [],
      "stateMutability": "nonpayable",
      "type": "function"
    }
  ],
  "bytecode": "0x608060405234801561001057600080fd5b506100417f1ae30a9eec28db5ada4eef1ed14ef327832e59baee412f0808f52946c9868b4d3361004660201b60201c565b6101b8565b610056828261005a60201b60201c565b5050565b61006a828261014660201b60201c565b61014257600160008084815260200190815260200160002060000160008373ffffffffffffffffffffffffffffffffffffffff1673ffffffffffffffffffffffffffffffffffffffff16815260200190815260200160002060006101000a81548160ff0219169083151502179055506100e76101b060201b60201c565b73ffffffffffffffffffffffffffffffffffffffff168173ffffffffffffffffffffffffffffffffffffffff16837f2f8788117e7eff1d82e926ec794901d17c78024a50270940304540a733656f0d60405160405180910390a45b5050565b600080600084815260200190815260200160002060000160008373ffffffffffffffffffffffffffffffffffffffff1673ffffffffffffffffffffffffffffffffffffffff16815260200190815260200160002060009054906101000a900460ff16905092915050565b600033905090565b611108806101c76000396000f3fe608060405234801561001057600080fd5b50600436106100935760003560e01c8063869d785f11610066578063869d785f1461013057806391d148541461014c578063a217fddf1461017c578063b532e4cb1461019a578063d547741f146101b657610093565b806301ffc9a714610098578063248a9ca3146100c85780632f2ff15d146100f857806336568abe14610114575b600080fd5b6100b260048036038101906100ad9190610bc8565b6101d2565b6040516100bf9190610e03565b60405180910390f35b6100e260048036038101906100dd9190610b63565b61024c565b6040516100ef9190610e1e565b60405180910390f35b610112600480360381019061010d9190610b8c565b61026b565b005b61012e60048036038101906101299190610b8c565b610294565b005b61014a60048036038101906101459190610b3a565b610317565b005b61016660048036038101906101619190610b8c565b6103d3565b6040516101739190610e03565b60405180910390f35b61018461043d565b6040516101919190610e1e565b60405180910390f35b6101b460048036038101906101af9190610b3a565b610444565b005b6101d060048036038101906101cb9190610b8c565b610508565b005b60007f7965db0b000000000000000000000000000000000000000000000000000000007bffffffffffffffffffffffffffffffffffffffffffffffffffffffff1916827bffffffffffffffffffffffffffffffffffffffffffffffffffffffff19161480610245575061024482610531565b5b9050919050565b6000806000838152602001908152602001600020600101549050919050565b6102748261024c565b6102858161028061059b565b6105a3565b61028f8383610640565b505050565b61029c61059b565b73ffffffffffffffffffffffffffffffffffffffff168173ffffffffffffffffffffffffffffffffffffffff1614610309576040517f08c379a000000000000000000000000000000000000000000000000000000000815260040161030090610e7b565b60405180910390fd5b6103138282610720565b5050565b7f1ae30a9eec28db5ada4eef1ed14ef327832e59baee412f0808f52946c9868b4d6103498161034461059b565b6105a3565b600160008373ffffffffffffffffffffffffffffffffffffffff1673ffffffffffffffffffffffffffffffffffffffff16815260200190815260200160002060006101000a81549060ff02191690557f531b0e51a5e148e272b7f631cb513195509ef80c7dff8c1c06557d353bbe1989826040516103c79190610de8565b60405180910390a15050565b600080600084815260200190815260200160002060000160008373ffffffffffffffffffffffffffffffffffffffff1673ffffffffffffffffffffffffffffffffffffffff16815260200190815260200160002060009054906101000a900460ff16905092915050565b6000801b81565b7f1ae30a9eec28db5ada4eef1ed14ef327832e59baee412f0808f52946c9868b4d6104768161047161059b565b6105a3565b60018060008473ffffffffffffffffffffffffffffffffffffffff1673ffffffffffffffffffffffffffffffffffffffff16815260200190815260200160002060006101000a81548160ff0219169083151502179055507f04598c0b8e0cfd3602065df8bb690e713b6b33b15f9699a86fe59bf0f87ef5b8826040516104fc9190610de8565b60405180910390a15050565b6105118261024c565b6105228161051d61059b565b6105a3565b61052c8383610720565b505050565b60007f01ffc9a7000000000000000000000000000000000000000000000000000000007bffffffffffffffffffffffffffffffffffffffffffffffffffffffff1916827bffffffffffffffffffffffffffffffffffffffffffffffffffffffff1916149050919050565b600033905090565b6105ad82826103d3565b61063c576105d28173ffffffffffffffffffffffffffffffffffffffff166014610801565b6105e08360001c6020610801565b6040516020016105f1929190610dae565b6040516020818303038152906040526040517f08c379a00000000000000000000000000000000000000000000000000000000081526004016106339190610e39565b60405180910390fd5b5050565b61064a82826103d3565b61071c57600160008084815260200190815260200160002060000160008373ffffffffffffffffffffffffffffffffffffffff1673ffffffffffffffffffffffffffffffffffffffff16815260200190815260200160002060006101000a81548160ff0219169083151502179055506106c161059b565b73ffffffffffffffffffffffffffffffffffffffff168173ffffffffffffffffffffffffffffffffffffffff16837f2f8788117e7eff1d82e926ec794901d17c78024a50270940304540a733656f0d60405160405180910390a45b5050565b61072a82826103d3565b156107fd57600080600084815260200190815260200160002060000160008373ffffffffffffffffffffffffffffffffffffffff1673ffffffffffffffffffffffffffffffffffffffff16815260200190815260200160002060006101000a81548160ff0219169083151502179055506107a261059b565b73ffffffffffffffffffffffffffffffffffffffff168173ffffffffffffffffffffffffffffffffffffffff16837ff6391f5c32d9c69d2a47ea670b442974b53935d1edc7fd64eb21e047a839171b60405160405180910390a45b5050565b6060600060028360026108149190610f18565b61081e9190610ec2565b67ffffffffffffffff81111561085d577f4e487b7100000000000000000000000000000000000000000000000000000000600052604160045260246000fd5b6040519080825280601f01601f19166020018201604052801561088f5781602001600182028036833780820191505090505b5090507f3000000000000000000000000000000000000000000000000000000000000000816000815181106108ed577f4e487b7100000000000000000000000000000000000000000000000000000000600052603260045260246000fd5b60200101907effffffffffffffffffffffffffffffffffffffffffffffffffffffffffffff1916908160001a9053507f780000000000000000000000000000000000000000000000000000000000000081600181518110610977577f4e487b7100000000000000000000000000000000000000000000000000000000600052603260045260246000fd5b60200101907effffffffffffffffffffffffffffffffffffffffffffffffffffffffffffff1916908160001a905350600060018460026109b79190610f18565b6109c19190610ec2565b90505b6001811115610aad577f3031323334353637383961626364656600000000000000000000000000000000600f861660108110610a29577f4e487b7100000000000000000000000000000000000000000000000000000000600052603260045260246000fd5b1a60f81b828281518110610a66577f4e487b7100000000000000000000000000000000000000000000000000000000600052603260045260246000fd5b60200101907effffffffffffffffffffffffffffffffffffffffffffffffffffffffffffff1916908160001a905350600485901c945080610aa690611023565b90506109c4565b5060008414610af1576040517f08c379a0000000000000000000000000000000000000000000000000000000008152600401610ae890610e5b565b60405180910390fd5b8091505092915050565b600081359050610b0a8161108d565b92915050565b600081359050610b1f816110a4565b92915050565b600081359050610b34816110bb565b92915050565b600060208284031215610b4c57600080fd5b6000610b5a84828501610afb565b91505092915050565b600060208284031215610b7557600080fd5b6000610b8384828501610b10565b91505092915050565b60008060408385031215610b9f57600080fd5b6000610bad85828601610b10565b9250506020610bbe85828601610afb565b9150509250929050565b600060208284031215610bda57600080fd5b6000610be884828501610b25565b91505092915050565b610bfa81610f72565b82525050565b610c0981610f84565b82525050565b610c1881610f90565b82525050565b6000610c2982610e9b565b610c338185610ea6565b9350610c43818560208601610ff0565b610c4c8161107c565b840191505092915050565b6000610c6282610e9b565b610c6c8185610eb7565b9350610c7c818560208601610ff0565b80840191505092915050565b6000610c95602083610ea6565b91507f537472696e67733a20686578206c656e67746820696e73756666696369656e746000830152602082019050919050565b6000610cd5601783610eb7565b91507f416363657373436f6e74726f6c3a206163636f756e74200000000000000000006000830152601782019050919050565b6000610d15601183610eb7565b91507f206973206d697373696e6720726f6c65200000000000000000000000000000006000830152601182019050919050565b6000610d55602f83610ea6565b91507f416363657373436f6e74726f6c3a2063616e206f6e6c792072656e6f756e636560008301527f20726f6c657320666f722073656c6600000000000000000000000000000000006020830152604082019050919050565b6000610db982610cc8565b9150610dc58285610c57565b9150610dd082610d08565b9150610ddc8284610c57565b91508190509392505050565b6000602082019050610dfd6000830184610bf1565b92915050565b6000602082019050610e186000830184610c00565b92915050565b6000602082019050610e336000830184610c0f565b92915050565b60006020820190508181036000830152610e538184610c1e565b905092915050565b60006020820190508181036000830152610e7481610c88565b9050919050565b60006020820190508181036000830152610e9481610d48565b9050919050565b600081519050919050565b600082825260208201905092915050565b600081905092915050565b6000610ecd82610fe6565b9150610ed883610fe6565b9250827fffffffffffffffffffffffffffffffffffffffffffffffffffffffffffffffff03821115610f0d57610f0c61104d565b5b828201905092915050565b6000610f2382610fe6565b9150610f2e83610fe6565b9250817fffffffffffffffffffffffffffffffffffffffffffffffffffffffffffffffff0483118215151615610f6757610f6661104d565b5b828202905092915050565b6000610f7d82610fc6565b9050919050565b60008115159050919050565b6000819050919050565b60007fffffffff0000000000000000000000000000000000000000000000000000000082169050919050565b600073ffffffffffffffffffffffffffffffffffffffff82169050919050565b6000819050919050565b60005b8381101561100e578082015181840152602081019050610ff3565b8381111561101d576000848401525b50505050565b600061102e82610fe6565b915060008214156110425761104161104d565b5b600182039050919050565b7f4e487b7100000000000000000000000000000000000000000000000000000000600052601160045260246000fd5b6000601f19601f8301169050919050565b61109681610f72565b81146110a157600080fd5b50565b6110ad81610f90565b81146110b857600080fd5b50565b6110c481610f9a565b81146110cf57600080fd5b5056fea2646970667358221220218211c8296624a82bbd5cd49facfee0a29c82bc56f275fd1f89a629e498973c64736f6c63430008000033",
  "immutableReferences": {},
  "source": "// SPDX-License-Identifier: UNLICENSED\npragma solidity ^0.8.0;\n\nimport \"../../node_modules/@openzeppelin/contracts/access/AccessControl.sol\";\n\ncontract BlogControl is AccessControl {\n    bytes32 private constant ADMIN_ACCESS = keccak256(\"ADMIN_ACCESS\");\n\n    mapping(address => bool) moderators;\n    mapping(bytes32 => bool) unlistedPosts;\n    mapping(address => bool) unlistedAuthors;\n\n    // events\n    event moderatorAdded(address moderator);\n    event moderatorRemoved(address moderator);\n\n    // modifiers\n    modifier isModerator() {\n        require(moderators[msg.sender] == true, \"You're not a moderator.\");\n        _;\n    }\n\n    modifier postIsNotUnlisted(bytes32 postId) {\n        require(unlistedPosts[postId] == false, \"This post is unlisted\");\n        _;\n    }\n\n    modifier authorIsNotUnlisted(address author) {\n        require(unlistedAuthors[author] == false, \"This author is unlisted\");\n        _;\n    }\n\n    // functions\n    constructor() {\n        _setupRole(ADMIN_ACCESS, msg.sender);\n    }\n\n    function addModerator(address moderator) public onlyRole(ADMIN_ACCESS) {\n        moderators[moderator] = true;\n        emit moderatorAdded(moderator);\n    }\n\n    function removeModerator(address moderator) public onlyRole(ADMIN_ACCESS) {\n        delete moderators[moderator];\n        emit moderatorRemoved(moderator);\n    }\n}\n",
  "sourcePath": "/Users/ghostffcode/Documents/UpkitStudio/etherblog/contracts/subcontracts/BlogControl.sol",
  "compiler": {
    "name": "solc",
    "version": "0.8.0+commit.c7dfd78e.Emscripten.clang"
  },
  "schemaVersion": "3.4.1",
  "updatedAt": "2021-07-16T12:17:46.272Z",
  "devdoc": {
    "kind": "dev",
    "methods": {
      "getRoleAdmin(bytes32)": {
        "details": "Returns the admin role that controls `role`. See {grantRole} and {revokeRole}. To change a role's admin, use {_setRoleAdmin}."
      },
      "grantRole(bytes32,address)": {
        "details": "Grants `role` to `account`. If `account` had not been already granted `role`, emits a {RoleGranted} event. Requirements: - the caller must have ``role``'s admin role."
      },
      "hasRole(bytes32,address)": {
        "details": "Returns `true` if `account` has been granted `role`."
      },
      "renounceRole(bytes32,address)": {
        "details": "Revokes `role` from the calling account. Roles are often managed via {grantRole} and {revokeRole}: this function's purpose is to provide a mechanism for accounts to lose their privileges if they are compromised (such as when a trusted device is misplaced). If the calling account had been granted `role`, emits a {RoleRevoked} event. Requirements: - the caller must be `account`."
      },
      "revokeRole(bytes32,address)": {
        "details": "Revokes `role` from `account`. If `account` had been granted `role`, emits a {RoleRevoked} event. Requirements: - the caller must have ``role``'s admin role."
      },
      "supportsInterface(bytes4)": {
        "details": "See {IERC165-supportsInterface}."
      }
    },
    "version": 1
  },
  "userdoc": {
    "kind": "user",
    "methods": {},
    "version": 1
  }
}