{
  "contractName": "Blog",
  "abi": [
    {
      "inputs": [
        {
          "internalType": "string",
          "name": "_name",
          "type": "string"
        }
      ],
      "stateMutability": "nonpayable",
      "type": "constructor"
    },
    {
      "anonymous": false,
      "inputs": [
        {
          "indexed": false,
          "internalType": "string",
          "name": "name",
          "type": "string"
        },
        {
          "indexed": false,
          "internalType": "string",
          "name": "username",
          "type": "string"
        },
        {
          "indexed": false,
          "internalType": "address",
          "name": "authorsAddress",
          "type": "address"
        }
      ],
      "name": "authorAdded",
      "type": "event"
    },
    {
      "anonymous": false,
      "inputs": [
        {
          "indexed": false,
          "internalType": "bytes32",
          "name": "id",
          "type": "bytes32"
        },
        {
          "indexed": false,
          "internalType": "bytes32",
          "name": "postId",
          "type": "bytes32"
        }
      ],
      "name": "commentAdded",
      "type": "event"
    },
    {
      "anonymous": false,
      "inputs": [
        {
          "indexed": false,
          "internalType": "bytes32",
          "name": "id",
          "type": "bytes32"
        },
        {
          "indexed": false,
          "internalType": "address",
          "name": "admin",
          "type": "address"
        }
      ],
      "name": "commentHidden",
      "type": "event"
    },
    {
      "anonymous": false,
      "inputs": [
        {
          "indexed": false,
          "internalType": "bytes32",
          "name": "id",
          "type": "bytes32"
        },
        {
          "indexed": false,
          "internalType": "string",
          "name": "title",
          "type": "string"
        },
        {
          "indexed": false,
          "internalType": "address",
          "name": "poster",
          "type": "address"
        }
      ],
      "name": "postCreated",
      "type": "event"
    },
    {
      "anonymous": false,
      "inputs": [
        {
          "indexed": false,
          "internalType": "bytes32",
          "name": "id",
          "type": "bytes32"
        },
        {
          "indexed": false,
          "internalType": "string",
          "name": "title",
          "type": "string"
        },
        {
          "indexed": false,
          "internalType": "string",
          "name": "slug",
          "type": "string"
        }
      ],
      "name": "postPublished",
      "type": "event"
    },
    {
      "anonymous": false,
      "inputs": [
        {
          "indexed": false,
          "internalType": "bytes32",
          "name": "id",
          "type": "bytes32"
        },
        {
          "indexed": false,
          "internalType": "string",
          "name": "title",
          "type": "string"
        },
        {
          "indexed": false,
          "internalType": "string",
          "name": "slug",
          "type": "string"
        }
      ],
      "name": "postUnlisted",
      "type": "event"
    },
    {
      "anonymous": false,
      "inputs": [
        {
          "indexed": false,
          "internalType": "bytes32",
          "name": "id",
          "type": "bytes32"
        },
        {
          "indexed": false,
          "internalType": "string",
          "name": "title",
          "type": "string"
        },
        {
          "indexed": false,
          "internalType": "string",
          "name": "slug",
          "type": "string"
        }
      ],
      "name": "postUnpublished",
      "type": "event"
    },
    {
      "anonymous": false,
      "inputs": [
        {
          "indexed": false,
          "internalType": "bytes32",
          "name": "id",
          "type": "bytes32"
        },
        {
          "indexed": false,
          "internalType": "bytes32",
          "name": "parent",
          "type": "bytes32"
        },
        {
          "indexed": false,
          "internalType": "bytes32",
          "name": "postId",
          "type": "bytes32"
        }
      ],
      "name": "replyAdded",
      "type": "event"
    },
    {
      "inputs": [
        {
          "internalType": "string",
          "name": "name",
          "type": "string"
        },
        {
          "internalType": "string",
          "name": "username",
          "type": "string"
        },
        {
          "internalType": "string",
          "name": "website",
          "type": "string"
        },
        {
          "internalType": "string",
          "name": "avatar",
          "type": "string"
        }
      ],
      "name": "authorCreateProfile",
      "outputs": [],
      "stateMutability": "nonpayable",
      "type": "function"
    },
    {
      "inputs": [
        {
          "internalType": "address",
          "name": "userAddress",
          "type": "address"
        }
      ],
      "name": "authorFetchProfileByAddress",
      "outputs": [
        {
          "internalType": "string",
          "name": "name",
          "type": "string"
        },
        {
          "internalType": "string",
          "name": "username",
          "type": "string"
        },
        {
          "internalType": "string",
          "name": "avatar",
          "type": "string"
        },
        {
          "internalType": "string",
          "name": "website",
          "type": "string"
        }
      ],
      "stateMutability": "view",
      "type": "function",
      "constant": true
    },
    {
      "inputs": [
        {
          "internalType": "string",
          "name": "_username",
          "type": "string"
        }
      ],
      "name": "authorFetchProfileByUsername",
      "outputs": [
        {
          "internalType": "string",
          "name": "name",
          "type": "string"
        },
        {
          "internalType": "string",
          "name": "username",
          "type": "string"
        },
        {
          "internalType": "string",
          "name": "avatar",
          "type": "string"
        },
        {
          "internalType": "string",
          "name": "website",
          "type": "string"
        }
      ],
      "stateMutability": "view",
      "type": "function",
      "constant": true
    },
    {
      "inputs": [
        {
          "internalType": "string",
          "name": "name",
          "type": "string"
        },
        {
          "internalType": "string",
          "name": "username",
          "type": "string"
        },
        {
          "internalType": "string",
          "name": "website",
          "type": "string"
        },
        {
          "internalType": "string",
          "name": "avatar",
          "type": "string"
        }
      ],
      "name": "authorUpdateProfile",
      "outputs": [],
      "stateMutability": "nonpayable",
      "type": "function"
    },
    {
      "inputs": [
        {
          "internalType": "bytes32",
          "name": "postId",
          "type": "bytes32"
        },
        {
          "internalType": "bool",
          "name": "comments",
          "type": "bool"
        }
      ],
      "name": "changePostComments",
      "outputs": [],
      "stateMutability": "nonpayable",
      "type": "function"
    },
    {
      "inputs": [
        {
          "internalType": "bytes32",
          "name": "postId",
          "type": "bytes32"
        },
        {
          "internalType": "bool",
          "name": "nsfw",
          "type": "bool"
        }
      ],
      "name": "changePostNSFWStatus",
      "outputs": [],
      "stateMutability": "nonpayable",
      "type": "function"
    },
    {
      "inputs": [
        {
          "internalType": "uint256",
          "name": "",
          "type": "uint256"
        }
      ],
      "name": "commentsArray",
      "outputs": [
        {
          "internalType": "bytes32",
          "name": "",
          "type": "bytes32"
        }
      ],
      "stateMutability": "view",
      "type": "function",
      "constant": true
    },
    {
      "inputs": [
        {
          "internalType": "string",
          "name": "title",
          "type": "string"
        },
        {
          "internalType": "string",
          "name": "slug",
          "type": "string"
        },
        {
          "internalType": "string",
          "name": "image",
          "type": "string"
        },
        {
          "internalType": "string",
          "name": "synopsis",
          "type": "string"
        },
        {
          "internalType": "bool",
          "name": "nsfw",
          "type": "bool"
        },
        {
          "internalType": "string",
          "name": "contentId",
          "type": "string"
        }
      ],
      "name": "createNewPost",
      "outputs": [
        {
          "internalType": "bytes32",
          "name": "postId",
          "type": "bytes32"
        }
      ],
      "stateMutability": "nonpayable",
      "type": "function"
    },
    {
      "inputs": [
        {
          "internalType": "uint256",
          "name": "page",
          "type": "uint256"
        }
      ],
      "name": "fetchPaginatedPosts",
      "outputs": [
        {
          "internalType": "bytes32[12]",
          "name": "",
          "type": "bytes32[12]"
        }
      ],
      "stateMutability": "view",
      "type": "function",
      "constant": true
    },
    {
      "inputs": [
        {
          "internalType": "bytes32",
          "name": "_postId",
          "type": "bytes32"
        }
      ],
      "name": "getPost",
      "outputs": [
        {
          "internalType": "bytes32",
          "name": "postId",
          "type": "bytes32"
        },
        {
          "internalType": "string",
          "name": "title",
          "type": "string"
        },
        {
          "internalType": "string",
          "name": "image",
          "type": "string"
        },
        {
          "internalType": "string",
          "name": "slug",
          "type": "string"
        },
        {
          "internalType": "string",
          "name": "synopsis",
          "type": "string"
        },
        {
          "internalType": "bool",
          "name": "nsfw",
          "type": "bool"
        },
        {
          "internalType": "bool",
          "name": "comments",
          "type": "bool"
        },
        {
          "internalType": "enum Posts.PostType",
          "name": "postType",
          "type": "uint8"
        },
        {
          "internalType": "string",
          "name": "contentId",
          "type": "string"
        },
        {
          "internalType": "uint256",
          "name": "createdAt",
          "type": "uint256"
        },
        {
          "internalType": "uint256",
          "name": "published",
          "type": "uint256"
        }
      ],
      "stateMutability": "view",
      "type": "function",
      "constant": true
    },
    {
      "inputs": [
        {
          "internalType": "string",
          "name": "_slug",
          "type": "string"
        }
      ],
      "name": "getPostBySlug",
      "outputs": [
        {
          "internalType": "bytes32",
          "name": "postId",
          "type": "bytes32"
        },
        {
          "internalType": "string",
          "name": "title",
          "type": "string"
        },
        {
          "internalType": "string",
          "name": "image",
          "type": "string"
        },
        {
          "internalType": "string",
          "name": "slug",
          "type": "string"
        },
        {
          "internalType": "string",
          "name": "synopsis",
          "type": "string"
        },
        {
          "internalType": "bool",
          "name": "nsfw",
          "type": "bool"
        },
        {
          "internalType": "bool",
          "name": "comments",
          "type": "bool"
        },
        {
          "internalType": "enum Posts.PostType",
          "name": "postType",
          "type": "uint8"
        },
        {
          "internalType": "string",
          "name": "contentId",
          "type": "string"
        },
        {
          "internalType": "uint256",
          "name": "createdAt",
          "type": "uint256"
        },
        {
          "internalType": "uint256",
          "name": "published",
          "type": "uint256"
        }
      ],
      "stateMutability": "view",
      "type": "function",
      "constant": true
    },
    {
      "inputs": [
        {
          "internalType": "uint256",
          "name": "",
          "type": "uint256"
        }
      ],
      "name": "postsArray",
      "outputs": [
        {
          "internalType": "bytes32",
          "name": "",
          "type": "bytes32"
        }
      ],
      "stateMutability": "view",
      "type": "function",
      "constant": true
    },
    {
      "inputs": [
        {
          "internalType": "bytes32",
          "name": "postId",
          "type": "bytes32"
        }
      ],
      "name": "publishPost",
      "outputs": [],
      "stateMutability": "nonpayable",
      "type": "function"
    },
    {
      "inputs": [
        {
          "internalType": "bytes32",
          "name": "postId",
          "type": "bytes32"
        }
      ],
      "name": "unPublishPost",
      "outputs": [],
      "stateMutability": "nonpayable",
      "type": "function"
    },
    {
      "inputs": [
        {
          "internalType": "bytes32",
          "name": "postId",
          "type": "bytes32"
        },
        {
          "internalType": "string",
          "name": "contentId",
          "type": "string"
        },
        {
          "internalType": "bytes32",
          "name": "parent",
          "type": "bytes32"
        }
      ],
      "name": "addCommentToPost",
      "outputs": [],
      "stateMutability": "nonpayable",
      "type": "function"
    },
    {
      "inputs": [
        {
          "internalType": "bytes32",
          "name": "postId",
          "type": "bytes32"
        },
        {
          "internalType": "string",
          "name": "contentId",
          "type": "string"
        }
      ],
      "name": "addCommentToPost",
      "outputs": [],
      "stateMutability": "nonpayable",
      "type": "function"
    },
    {
      "inputs": [
        {
          "internalType": "bytes32",
          "name": "postId",
          "type": "bytes32"
        },
        {
          "internalType": "bytes32",
          "name": "commentId",
          "type": "bytes32"
        }
      ],
      "name": "hideComment",
      "outputs": [],
      "stateMutability": "nonpayable",
      "type": "function"
    }
  ],
  "bytecode": "0x60806040523480156200001157600080fd5b5060405162003c8738038062003c87833981810160405281019062000037919062000179565b80600990805190602001906200004f92919062000057565b5050620002ef565b82805462000065906200025b565b90600052602060002090601f016020900481019282620000895760008555620000d5565b82601f10620000a457805160ff1916838001178555620000d5565b82800160010185558215620000d5579182015b82811115620000d4578251825591602001919060010190620000b7565b5b509050620000e49190620000e8565b5090565b5b8082111562000103576000816000905550600101620000e9565b5090565b60006200011e6200011884620001f2565b620001be565b9050828152602081018484840111156200013757600080fd5b6200014484828562000225565b509392505050565b600082601f8301126200015e57600080fd5b81516200017084826020860162000107565b91505092915050565b6000602082840312156200018c57600080fd5b600082015167ffffffffffffffff811115620001a757600080fd5b620001b5848285016200014c565b91505092915050565b6000604051905081810181811067ffffffffffffffff82111715620001e857620001e7620002c0565b5b8060405250919050565b600067ffffffffffffffff82111562000210576200020f620002c0565b5b601f19601f8301169050602081019050919050565b60005b838110156200024557808201518184015260208101905062000228565b8381111562000255576000848401525b50505050565b600060028204905060018216806200027457607f821691505b602082108114156200028b576200028a62000291565b5b50919050565b7f4e487b7100000000000000000000000000000000000000000000000000000000600052602260045260246000fd5b7f4e487b7100000000000000000000000000000000000000000000000000000000600052604160045260246000fd5b61398880620002ff6000396000f3fe608060405234801561001057600080fd5b506004361061010b5760003560e01c80637c280f59116100a2578063d043bf0f11610071578063d043bf0f146102d1578063d9a85fc1146102ed578063dd7cbfbc14610327578063efe827311461035a578063fe639b501461038a5761010b565b80637c280f591461020457806393e43bbe14610234578063a608f8621461026e578063cb1dd7441461029e5761010b565b80635103ed59116100de5780635103ed591461018057806355ac0aa51461019c578063729bd0da146101b857806379e19278146101e85761010b565b8063068020a41461011057806339b487881461012c5780634b117b9214610148578063504ada3d14610164575b600080fd5b61012a60048036038101906101259190612800565b6103a6565b005b610146600480360381019061014191906128f5565b6105b8565b005b610162600480360381019061015d9190612865565b61061a565b005b61017e6004803603810190610179919061299d565b610711565b005b61019a600480360381019061019591906128a1565b6109d0565b005b6101b660048036038101906101b19190612829565b610a30565b005b6101d260048036038101906101cd9190612b61565b610ba7565b6040516101df9190613158565b60405180910390f35b61020260048036038101906101fd919061299d565b610bcb565b005b61021e60048036038101906102199190612b61565b610c18565b60405161022b919061313c565b60405180910390f35b61024e60048036038101906102499190612800565b610d65565b6040516102659b9a99989796959493929190613241565b60405180910390f35b61028860048036038101906102839190612b61565b6111f3565b6040516102959190613158565b60405180910390f35b6102b860048036038101906102b3919061295c565b611217565b6040516102c89493929190613399565b60405180910390f35b6102eb60048036038101906102e69190612829565b6115cf565b005b6103076004803603810190610302919061295c565b611746565b60405161031e9b9a99989796959493929190613241565b60405180910390f35b610341600480360381019061033c91906127d7565b611808565b6040516103519493929190613399565b60405180910390f35b610374600480360381019061036f9190612a60565b611b0c565b6040516103819190613158565b60405180910390f35b6103a4600480360381019061039f9190612800565b6120ad565b005b80600060036000838152602001908152602001600020600001541415610401576040517f08c379a00000000000000000000000000000000000000000000000000000000081526004016103f8906133fa565b60405180910390fd5b813373ffffffffffffffffffffffffffffffffffffffff1660036000838152602001908152602001600020600501600081548110610468577f4e487b7100000000000000000000000000000000000000000000000000000000600052603260045260246000fd5b9060005260206000200160009054906101000a900473ffffffffffffffffffffffffffffffffffffffff1673ffffffffffffffffffffffffffffffffffffffff16146104e9576040517f08c379a00000000000000000000000000000000000000000000000000000000081526004016104e0906134fa565b60405180910390fd5b600060036000858152602001908152602001600020600a0160006101000a81548160ff02191690836001811115610549577f4e487b7100000000000000000000000000000000000000000000000000000000600052602160045260246000fd5b02179055507f3f3fed94c49a3085a65783e3477e3cad54324e7098d92af12f0fa13b7e334b178360036000868152602001908152602001600020600101600360008781526020019081526020016000206002016040516105ab9392919061330f565b60405180910390a1505050565b82600115156105c6826122bf565b151514610608576040517f08c379a00000000000000000000000000000000000000000000000000000000081526004016105ff9061343a565b60405180910390fd5b610613848484612348565b5050505050565b813373ffffffffffffffffffffffffffffffffffffffff1660036000838152602001908152602001600020600501600081548110610681577f4e487b7100000000000000000000000000000000000000000000000000000000600052603260045260246000fd5b9060005260206000200160009054906101000a900473ffffffffffffffffffffffffffffffffffffffff1673ffffffffffffffffffffffffffffffffffffffff1614610702576040517f08c379a00000000000000000000000000000000000000000000000000000000081526004016106f9906134fa565b60405180910390fd5b61070c83836123f0565b505050565b82600073ffffffffffffffffffffffffffffffffffffffff1660018260405161073a91906130f0565b908152602001604051809103902060009054906101000a900473ffffffffffffffffffffffffffffffffffffffff1673ffffffffffffffffffffffffffffffffffffffff1614806107f457503373ffffffffffffffffffffffffffffffffffffffff166001826040516107ad91906130f0565b908152602001604051809103902060009054906101000a900473ffffffffffffffffffffffffffffffffffffffff1673ffffffffffffffffffffffffffffffffffffffff16145b610833576040517f08c379a000000000000000000000000000000000000000000000000000000000815260040161082a9061341a565b60405180910390fd5b6040518060a001604052808681526020018381526020018481526020018581526020013373ffffffffffffffffffffffffffffffffffffffff168152506000803373ffffffffffffffffffffffffffffffffffffffff1673ffffffffffffffffffffffffffffffffffffffff16815260200190815260200160002060008201518160000190805190602001906108ca929190612655565b5060208201518160010190805190602001906108e7929190612655565b506040820151816002019080519060200190610904929190612655565b506060820151816003019080519060200190610921929190612655565b5060808201518160040160006101000a81548173ffffffffffffffffffffffffffffffffffffffff021916908373ffffffffffffffffffffffffffffffffffffffff1602179055509050503360018560405161097d91906130f0565b908152602001604051809103902060006101000a81548173ffffffffffffffffffffffffffffffffffffffff021916908373ffffffffffffffffffffffffffffffffffffffff1602179055505050505050565b81600115156109de826122bf565b151514610a20576040517f08c379a0000000000000000000000000000000000000000000000000000000008152600401610a179061343a565b60405180910390fd5b610a2a83836124b8565b50505050565b81600060036000838152602001908152602001600020600001541415610a8b576040517f08c379a0000000000000000000000000000000000000000000000000000000008152600401610a82906133fa565b60405180910390fd5b823373ffffffffffffffffffffffffffffffffffffffff1660036000838152602001908152602001600020600501600081548110610af2577f4e487b7100000000000000000000000000000000000000000000000000000000600052603260045260246000fd5b9060005260206000200160009054906101000a900473ffffffffffffffffffffffffffffffffffffffff1673ffffffffffffffffffffffffffffffffffffffff1614610b73576040517f08c379a0000000000000000000000000000000000000000000000000000000008152600401610b6a906134fa565b60405180910390fd5b826003600086815260200190815260200160002060070160006101000a81548160ff02191690831515021790555050505050565b60028181548110610bb757600080fd5b906000526020600020016000915090505481565b610bd784848484610711565b7fef47bb899dbff275b35f1e639da3065cc8e640ca71b09a9aeec65c77006ddc5c848433604051610c0a93929190613354565b60405180910390a150505050565b610c206126db565b6000600c9050610c2e6126db565b6000841415610c3c57600193505b60008285610c4a91906135e4565b9050600060016002805490501015610c685782945050505050610d60565b8160028054905011610c89576001600280549050610c86919061363e565b91505b60005b848111610d575760028381548110610ccd577f4e487b7100000000000000000000000000000000000000000000000000000000600052603260045260246000fd5b90600052602060002001548483600c8110610d11577f4e487b7100000000000000000000000000000000000000000000000000000000600052603260045260246000fd5b6020020181815250506000831415610d2857610d57565b8180610d3390613787565b9250508280610d419061372b565b9350508080610d4f90613787565b915050610c8c565b50829450505050505b919050565b6000606080606080600080600060606000808b600060036000838152602001908152602001600020600001541415610dd2576040517f08c379a0000000000000000000000000000000000000000000000000000000008152600401610dc9906133fa565b60405180910390fd5b8c9b50600360008e81526020019081526020016000206001018054610df690613755565b80601f0160208091040260200160405190810160405280929190818152602001828054610e2290613755565b8015610e6f5780601f10610e4457610100808354040283529160200191610e6f565b820191906000526020600020905b815481529060010190602001808311610e5257829003601f168201915b50505050509a50600360008e81526020019081526020016000206002018054610e9790613755565b80601f0160208091040260200160405190810160405280929190818152602001828054610ec390613755565b8015610f105780601f10610ee557610100808354040283529160200191610f10565b820191906000526020600020905b815481529060010190602001808311610ef357829003601f168201915b50505050509850600360008e81526020019081526020016000206004018054610f3890613755565b80601f0160208091040260200160405190810160405280929190818152602001828054610f6490613755565b8015610fb15780601f10610f8657610100808354040283529160200191610fb1565b820191906000526020600020905b815481529060010190602001808311610f9457829003601f168201915b50505050509950600360008e81526020019081526020016000206003018054610fd990613755565b80601f016020809104026020016040519081016040528092919081815260200182805461100590613755565b80156110525780601f1061102757610100808354040283529160200191611052565b820191906000526020600020905b81548152906001019060200180831161103557829003601f168201915b50505050509750600360008e815260200190815260200160002060070160009054906101000a900460ff169650600360008e815260200190815260200160002060070160019054906101000a900460ff169550600360008e815260200190815260200160002060070160029054906101000a900460ff169450600360008e815260200190815260200160002060080180546110ec90613755565b80601f016020809104026020016040519081016040528092919081815260200182805461111890613755565b80156111655780601f1061113a57610100808354040283529160200191611165565b820191906000526020600020905b81548152906001019060200180831161114857829003601f168201915b50505050509350600360008e8152602001908152602001600020600901549250600360008e8152602001908152602001600020600a0160009054906101000a900460ff1660018111156111e1577f4e487b7100000000000000000000000000000000000000000000000000000000600052602160045260246000fd5b91505091939597999b90929496989a50565b6006818154811061120357600080fd5b906000526020600020016000915090505481565b606080606080600060018660405161122f91906130f0565b908152602001604051809103902060009054906101000a900473ffffffffffffffffffffffffffffffffffffffff169050600073ffffffffffffffffffffffffffffffffffffffff168173ffffffffffffffffffffffffffffffffffffffff1614156112d0576040517f08c379a00000000000000000000000000000000000000000000000000000000081526004016112c79061349a565b60405180910390fd5b6115bf6000808373ffffffffffffffffffffffffffffffffffffffff1673ffffffffffffffffffffffffffffffffffffffff1681526020019081526020016000206040518060a001604052908160008201805461132c90613755565b80601f016020809104026020016040519081016040528092919081815260200182805461135890613755565b80156113a55780601f1061137a576101008083540402835291602001916113a5565b820191906000526020600020905b81548152906001019060200180831161138857829003601f168201915b505050505081526020016001820180546113be90613755565b80601f01602080910402602001604051908101604052809291908181526020018280546113ea90613755565b80156114375780601f1061140c57610100808354040283529160200191611437565b820191906000526020600020905b81548152906001019060200180831161141a57829003601f168201915b5050505050815260200160028201805461145090613755565b80601f016020809104026020016040519081016040528092919081815260200182805461147c90613755565b80156114c95780601f1061149e576101008083540402835291602001916114c9565b820191906000526020600020905b8154815290600101906020018083116114ac57829003601f168201915b505050505081526020016003820180546114e290613755565b80601f016020809104026020016040519081016040528092919081815260200182805461150e90613755565b801561155b5780601f106115305761010080835404028352916020019161155b565b820191906000526020600020905b81548152906001019060200180831161153e57829003601f168201915b505050505081526020016004820160009054906101000a900473ffffffffffffffffffffffffffffffffffffffff1673ffffffffffffffffffffffffffffffffffffffff1673ffffffffffffffffffffffffffffffffffffffff168152505061253f565b9450945094509450509193509193565b8160006003600083815260200190815260200160002060000154141561162a576040517f08c379a0000000000000000000000000000000000000000000000000000000008152600401611621906133fa565b60405180910390fd5b823373ffffffffffffffffffffffffffffffffffffffff1660036000838152602001908152602001600020600501600081548110611691577f4e487b7100000000000000000000000000000000000000000000000000000000600052603260045260246000fd5b9060005260206000200160009054906101000a900473ffffffffffffffffffffffffffffffffffffffff1673ffffffffffffffffffffffffffffffffffffffff1614611712576040517f08c379a0000000000000000000000000000000000000000000000000000000008152600401611709906134fa565b60405180910390fd5b826003600086815260200190815260200160002060070160016101000a81548160ff02191690831515021790555050505050565b6000606080606080600080600060606000808b600060048260405161176b91906130f0565b90815260200160405180910390205414156117bb576040517f08c379a00000000000000000000000000000000000000000000000000000000081526004016117b29061345a565b60405180910390fd5b6117e260048e6040516117ce91906130f0565b908152602001604051809103902054610d65565b9b509b509b509b509b509b509b509b509b509b509b505091939597999b90929496989a50565b606080606080611afd6000808773ffffffffffffffffffffffffffffffffffffffff1673ffffffffffffffffffffffffffffffffffffffff1681526020019081526020016000206040518060a001604052908160008201805461186a90613755565b80601f016020809104026020016040519081016040528092919081815260200182805461189690613755565b80156118e35780601f106118b8576101008083540402835291602001916118e3565b820191906000526020600020905b8154815290600101906020018083116118c657829003601f168201915b505050505081526020016001820180546118fc90613755565b80601f016020809104026020016040519081016040528092919081815260200182805461192890613755565b80156119755780601f1061194a57610100808354040283529160200191611975565b820191906000526020600020905b81548152906001019060200180831161195857829003601f168201915b5050505050815260200160028201805461198e90613755565b80601f01602080910402602001604051908101604052809291908181526020018280546119ba90613755565b8015611a075780601f106119dc57610100808354040283529160200191611a07565b820191906000526020600020905b8154815290600101906020018083116119ea57829003601f168201915b50505050508152602001600382018054611a2090613755565b80601f0160208091040260200160405190810160405280929190818152602001828054611a4c90613755565b8015611a995780601f10611a6e57610100808354040283529160200191611a99565b820191906000526020600020905b815481529060010190602001808311611a7c57829003601f168201915b505050505081526020016004820160009054906101000a900473ffffffffffffffffffffffffffffffffffffffff1673ffffffffffffffffffffffffffffffffffffffff1673ffffffffffffffffffffffffffffffffffffffff168152505061253f565b93509350935093509193509193565b6000856000600482604051611b2191906130f0565b90815260200160405180910390205414611b70576040517f08c379a0000000000000000000000000000000000000000000000000000000008152600401611b67906134ba565b60405180910390fd5b878733604051602001611b8593929190613107565b6040516020818303038152906040528051906020012091506000600360008481526020019081526020016000206000015414611bf6576040517f08c379a0000000000000000000000000000000000000000000000000000000008152600401611bed906134da565b60405180910390fd5b81600360008481526020019081526020016000206000018190555087600360008481526020019081526020016000206001019080519060200190611c3b929190612655565b5086600360008481526020019081526020016000206002019080519060200190611c66929190612655565b5085600360008481526020019081526020016000206004019080519060200190611c91929190612655565b5084600360008481526020019081526020016000206003019080519060200190611cbc929190612655565b50836003600084815260200190815260200160002060070160006101000a81548160ff02191690831515021790555060016003600084815260200190815260200160002060070160016101000a81548160ff02191690831515021790555060006003600084815260200190815260200160002060070160026101000a81548160ff02191690836003811115611d7a577f4e487b7100000000000000000000000000000000000000000000000000000000600052602160045260246000fd5b021790555082600360008481526020019081526020016000206008019080519060200190611da9929190612655565b50426003600084815260200190815260200160002060090181905550600160036000848152602001908152602001600020600a0160006101000a81548160ff02191690836001811115611e25577f4e487b7100000000000000000000000000000000000000000000000000000000600052602160045260246000fd5b021790555060036000838152602001908152602001600020600501339080600181540180825580915050600190039060005260206000200160009091909190916101000a81548173ffffffffffffffffffffffffffffffffffffffff021916908373ffffffffffffffffffffffffffffffffffffffff16021790555060405180606001604052803373ffffffffffffffffffffffffffffffffffffffff168152602001600115158152602001600115158152506003600084815260200190815260200160002060060160003373ffffffffffffffffffffffffffffffffffffffff1673ffffffffffffffffffffffffffffffffffffffff16815260200190815260200160002060008201518160000160006101000a81548173ffffffffffffffffffffffffffffffffffffffff021916908373ffffffffffffffffffffffffffffffffffffffff16021790555060208201518160000160146101000a81548160ff02191690831515021790555060408201518160000160156101000a81548160ff02191690831515021790555090505081600488604051611fc691906130f0565b908152602001604051809103902081905550600560003373ffffffffffffffffffffffffffffffffffffffff1673ffffffffffffffffffffffffffffffffffffffff16815260200190815260200160002082908060018154018082558091505060019003906000526020600020016000909190919091505560028290806001815401808255809150506001900390600052602060002001600090919091909150557f29a21b7f0b67a6e288b021ea73f30160e1f4abc8c24dbe956ef95aaa4643d45a82898960405161209a939291906131fc565b60405180910390a1509695505050505050565b80600060036000838152602001908152602001600020600001541415612108576040517f08c379a00000000000000000000000000000000000000000000000000000000081526004016120ff906133fa565b60405180910390fd5b813373ffffffffffffffffffffffffffffffffffffffff166003600083815260200190815260200160002060050160008154811061216f577f4e487b7100000000000000000000000000000000000000000000000000000000600052603260045260246000fd5b9060005260206000200160009054906101000a900473ffffffffffffffffffffffffffffffffffffffff1673ffffffffffffffffffffffffffffffffffffffff16146121f0576040517f08c379a00000000000000000000000000000000000000000000000000000000081526004016121e7906134fa565b60405180910390fd5b600160036000858152602001908152602001600020600a0160006101000a81548160ff02191690836001811115612250577f4e487b7100000000000000000000000000000000000000000000000000000000600052602160045260246000fd5b02179055507f29a21b7f0b67a6e288b021ea73f30160e1f4abc8c24dbe956ef95aaa4643d45a8360036000868152602001908152602001600020600101600360008781526020019081526020016000206002016040516122b29392919061330f565b60405180910390a1505050565b60008160006003600083815260200190815260200160002060000154141561231c576040517f08c379a0000000000000000000000000000000000000000000000000000000008152600401612313906133fa565b60405180910390fd5b6003600084815260200190815260200160002060070160019054906101000a900460ff16915050919050565b60006123548484612568565b9050816007600083815260200190815260200160002060050181905550600760008381526020019081526020016000206006018190806001815401808255809150506001900390600052602060002001600090919091909150557fe69e19fe0bab2363b4853ac656465ce9aaa39662bb9e79be6eb8fe5ae53d2d798183866040516123e1939291906131c5565b60405180910390a19392505050565b81818160076000838152602001908152602001600020600101541461244a576040517f08c379a00000000000000000000000000000000000000000000000000000000081526004016124419061347a565b60405180910390fd5b60016007600085815260200190815260200160002060040160006101000a81548160ff0219169083151502179055507f0769115d90cd7de6fee278b1e35562fe6b4e69f7e00d528607e5220c4bd2e2b183336040516124aa929190613173565b60405180910390a150505050565b60006124c48383612568565b9050600860008481526020019081526020016000208190806001815401808255809150506001900390600052602060002001600090919091909150557ff74b023d75d97df5419ed45ea86321e161497a745b03b1263f079dba7a7ed94f818460405161253192919061319c565b60405180910390a192915050565b606080606080846000015193508460600151925084602001519150846040015190509193509193565b60008282334260405160200161258194939291906130a6565b604051602081830303815290604052805190602001209050806007600083815260200190815260200160002060000181905550826007600083815260200190815260200160002060010181905550816007600083815260200190815260200160002060030190805190602001906125f9929190612655565b50336007600083815260200190815260200160002060020160006101000a81548173ffffffffffffffffffffffffffffffffffffffff021916908373ffffffffffffffffffffffffffffffffffffffff16021790555092915050565b82805461266190613755565b90600052602060002090601f01602090048101928261268357600085556126ca565b82601f1061269c57805160ff19168380011785556126ca565b828001600101855582156126ca579182015b828111156126c95782518255916020019190600101906126ae565b5b5090506126d791906126fe565b5090565b604051806101800160405280600c90602082028036833780820191505090505090565b5b808211156127175760008160009055506001016126ff565b5090565b600061272e6127298461354b565b61351a565b90508281526020810184848401111561274657600080fd5b6127518482856136e9565b509392505050565b600081359050612768816138f6565b92915050565b60008135905061277d8161390d565b92915050565b60008135905061279281613924565b92915050565b600082601f8301126127a957600080fd5b81356127b984826020860161271b565b91505092915050565b6000813590506127d18161393b565b92915050565b6000602082840312156127e957600080fd5b60006127f784828501612759565b91505092915050565b60006020828403121561281257600080fd5b600061282084828501612783565b91505092915050565b6000806040838503121561283c57600080fd5b600061284a85828601612783565b925050602061285b8582860161276e565b9150509250929050565b6000806040838503121561287857600080fd5b600061288685828601612783565b925050602061289785828601612783565b9150509250929050565b600080604083850312156128b457600080fd5b60006128c285828601612783565b925050602083013567ffffffffffffffff8111156128df57600080fd5b6128eb85828601612798565b9150509250929050565b60008060006060848603121561290a57600080fd5b600061291886828701612783565b935050602084013567ffffffffffffffff81111561293557600080fd5b61294186828701612798565b925050604061295286828701612783565b9150509250925092565b60006020828403121561296e57600080fd5b600082013567ffffffffffffffff81111561298857600080fd5b61299484828501612798565b91505092915050565b600080600080608085870312156129b357600080fd5b600085013567ffffffffffffffff8111156129cd57600080fd5b6129d987828801612798565b945050602085013567ffffffffffffffff8111156129f657600080fd5b612a0287828801612798565b935050604085013567ffffffffffffffff811115612a1f57600080fd5b612a2b87828801612798565b925050606085013567ffffffffffffffff811115612a4857600080fd5b612a5487828801612798565b91505092959194509250565b60008060008060008060c08789031215612a7957600080fd5b600087013567ffffffffffffffff811115612a9357600080fd5b612a9f89828a01612798565b965050602087013567ffffffffffffffff811115612abc57600080fd5b612ac889828a01612798565b955050604087013567ffffffffffffffff811115612ae557600080fd5b612af189828a01612798565b945050606087013567ffffffffffffffff811115612b0e57600080fd5b612b1a89828a01612798565b9350506080612b2b89828a0161276e565b92505060a087013567ffffffffffffffff811115612b4857600080fd5b612b5489828a01612798565b9150509295509295509295565b600060208284031215612b7357600080fd5b6000612b81848285016127c2565b91505092915050565b6000612b968383612c2e565b60208301905092915050565b612bab81613672565b82525050565b612bc2612bbd82613672565b6137d0565b82525050565b612bd18161359a565b612bdb81846135bd565b9250612be68261357b565b8060005b83811015612c17578151612bfe8782612b8a565b9650612c09836135b0565b925050600181019050612bea565b505050505050565b612c2881613684565b82525050565b612c3781613690565b82525050565b612c4681613690565b82525050565b612c5d612c5882613690565b6137e2565b82525050565b612c6c816136d7565b82525050565b6000612c7d826135a5565b612c8781856135c8565b9350612c978185602086016136f8565b612ca0816138c4565b840191505092915050565b6000612cb6826135a5565b612cc081856135d9565b9350612cd08185602086016136f8565b80840191505092915050565b60008154612ce981613755565b612cf381866135c8565b94506001821660008114612d0e5760018114612d2057612d53565b60ff1983168652602086019350612d53565b612d2985613585565b60005b83811015612d4b57815481890152600182019150602081019050612d2c565b808801955050505b50505092915050565b6000612d696018836135c8565b91507f5468697320706f737420646f65736e27742065786973742e00000000000000006000830152602082019050919050565b6000612da96028836135c8565b91507f596f752063616e206e6f74206d616b65206368616e67657320746f207468697360008301527f2070726f66696c650000000000000000000000000000000000000000000000006020830152604082019050919050565b6000612e0f6023836135c8565b91507f436f6d6d656e7473206172652064697361626c656420666f722074686973207060008301527f6f737400000000000000000000000000000000000000000000000000000000006020830152604082019050919050565b6000612e756018836135c8565b91507f5468697320706f737420646f6573206e6f7420657869737400000000000000006000830152602082019050919050565b6000612eb56016836135c8565b91507f57726f6e6720636f6d6d656e7420666f7220706f7374000000000000000000006000830152602082019050919050565b6000612ef56023836135c8565b91507f4e6f2070726f66696c652077697468207468617420757365726e616d6520666f60008301527f756e6400000000000000000000000000000000000000000000000000000000006020830152604082019050919050565b6000612f5b602a836135c8565b91507f506c656173652063686f6f7365206120756e6971756520736c756720666f722060008301527f796f757220706f73742e000000000000000000000000000000000000000000006020830152604082019050919050565b6000612fc16022836135c8565b91507f4120706f73742077697468207468697320494420616c7265616479206578697360008301527f74730000000000000000000000000000000000000000000000000000000000006020830152604082019050919050565b6000613027602d836135c8565b91507f596f7520617265206e6f7420746865207072696d61727920617574686f72206660008301527f6f72207468697320706f73742e000000000000000000000000000000000000006020830152604082019050919050565b613089816136cd565b82525050565b6130a061309b826136cd565b6137fe565b82525050565b60006130b28287612c4c565b6020820191506130c28286612cab565b91506130ce8285612bb1565b6014820191506130de828461308f565b60208201915081905095945050505050565b60006130fc8284612cab565b915081905092915050565b60006131138286612cab565b915061311f8285612cab565b915061312b8284612bb1565b601482019150819050949350505050565b6000610180820190506131526000830184612bc8565b92915050565b600060208201905061316d6000830184612c3d565b92915050565b60006040820190506131886000830185612c3d565b6131956020830184612ba2565b9392505050565b60006040820190506131b16000830185612c3d565b6131be6020830184612c3d565b9392505050565b60006060820190506131da6000830186612c3d565b6131e76020830185612c3d565b6131f46040830184612c3d565b949350505050565b60006060820190506132116000830186612c3d565b81810360208301526132238185612c72565b905081810360408301526132378184612c72565b9050949350505050565b600061016082019050613257600083018e612c3d565b8181036020830152613269818d612c72565b9050818103604083015261327d818c612c72565b90508181036060830152613291818b612c72565b905081810360808301526132a5818a612c72565b90506132b460a0830189612c1f565b6132c160c0830188612c1f565b6132ce60e0830187612c63565b8181036101008301526132e18186612c72565b90506132f1610120830185613080565b6132ff610140830184613080565b9c9b505050505050505050505050565b60006060820190506133246000830186612c3d565b81810360208301526133368185612cdc565b9050818103604083015261334a8184612cdc565b9050949350505050565b6000606082019050818103600083015261336e8186612c72565b905081810360208301526133828185612c72565b90506133916040830184612ba2565b949350505050565b600060808201905081810360008301526133b38187612c72565b905081810360208301526133c78186612c72565b905081810360408301526133db8185612c72565b905081810360608301526133ef8184612c72565b905095945050505050565b6000602082019050818103600083015261341381612d5c565b9050919050565b6000602082019050818103600083015261343381612d9c565b9050919050565b6000602082019050818103600083015261345381612e02565b9050919050565b6000602082019050818103600083015261347381612e68565b9050919050565b6000602082019050818103600083015261349381612ea8565b9050919050565b600060208201905081810360008301526134b381612ee8565b9050919050565b600060208201905081810360008301526134d381612f4e565b9050919050565b600060208201905081810360008301526134f381612fb4565b9050919050565b600060208201905081810360008301526135138161301a565b9050919050565b6000604051905081810181811067ffffffffffffffff8211171561354157613540613895565b5b8060405250919050565b600067ffffffffffffffff82111561356657613565613895565b5b601f19601f8301169050602081019050919050565b6000819050919050565b60008190508160005260206000209050919050565b6000600c9050919050565b600081519050919050565b6000602082019050919050565b600081905092915050565b600082825260208201905092915050565b600081905092915050565b60006135ef826136cd565b91506135fa836136cd565b9250817fffffffffffffffffffffffffffffffffffffffffffffffffffffffffffffffff048311821515161561363357613632613808565b5b828202905092915050565b6000613649826136cd565b9150613654836136cd565b92508282101561366757613666613808565b5b828203905092915050565b600061367d826136ad565b9050919050565b60008115159050919050565b6000819050919050565b60008190506136a8826138e2565b919050565b600073ffffffffffffffffffffffffffffffffffffffff82169050919050565b6000819050919050565b60006136e28261369a565b9050919050565b82818337600083830152505050565b60005b838110156137165780820151818401526020810190506136fb565b83811115613725576000848401525b50505050565b6000613736826136cd565b9150600082141561374a57613749613808565b5b600182039050919050565b6000600282049050600182168061376d57607f821691505b6020821081141561378157613780613866565b5b50919050565b6000613792826136cd565b91507fffffffffffffffffffffffffffffffffffffffffffffffffffffffffffffffff8214156137c5576137c4613808565b5b600182019050919050565b60006137db826137ec565b9050919050565b6000819050919050565b60006137f7826138d5565b9050919050565b6000819050919050565b7f4e487b7100000000000000000000000000000000000000000000000000000000600052601160045260246000fd5b7f4e487b7100000000000000000000000000000000000000000000000000000000600052602160045260246000fd5b7f4e487b7100000000000000000000000000000000000000000000000000000000600052602260045260246000fd5b7f4e487b7100000000000000000000000000000000000000000000000000000000600052604160045260246000fd5b6000601f19601f8301169050919050565b60008160601b9050919050565b600481106138f3576138f2613837565b5b50565b6138ff81613672565b811461390a57600080fd5b50565b61391681613684565b811461392157600080fd5b50565b61392d81613690565b811461393857600080fd5b50565b613944816136cd565b811461394f57600080fd5b5056fea26469706673582212209e4e7a48f6934f021a177419ab2266f5e9a175daa0f5f3403cf2f8eaa5e372fd64736f6c63430008000033",
  "immutableReferences": {},
  "source": "// SPDX-License-Identifier: UNLICENSED\npragma solidity ^0.8.0;\n\nimport \"./subcontracts/Authors.sol\";\nimport \"./subcontracts/Posts.sol\";\nimport \"./subcontracts/Comments.sol\";\n\n// import \"../node_modules/@openzeppelin/contracts/access/Ownable.sol\";\n\ncontract Blog is Authors, Posts, Comments {\n    string name;\n\n    // modifiers\n    modifier canComment(bytes32 postId) {\n        require(\n            commentsEnabledForPost(postId) == true,\n            \"Comments are disabled for this post\"\n        );\n        _;\n    }\n\n    constructor(string memory _name) {\n        name = _name;\n    }\n\n    /**\n        Public functions to interface with sub contracts\n     */\n\n    /**\n        Comments Public Functions\n     */\n    function addCommentToPost(bytes32 postId, string memory contentId)\n        public\n        canComment(postId)\n    {\n        _addComment(postId, contentId);\n    }\n\n    function addCommentToPost(\n        bytes32 postId,\n        string memory contentId,\n        bytes32 parent\n    ) public canComment(postId) {\n        _addComment(postId, contentId, parent);\n    }\n\n    function hideComment(bytes32 postId, bytes32 commentId)\n        public\n        isPostAuthor(postId)\n    {\n        _hideComment(postId, commentId);\n    }\n}\n",
  "sourcePath": "/Users/ghostffcode/Documents/UpkitStudio/etherblog/contracts/Blog.sol",
  "compiler": {
    "name": "solc",
    "version": "0.8.0+commit.c7dfd78e.Emscripten.clang"
  },
  "schemaVersion": "3.4.1",
  "updatedAt": "2021-07-19T17:03:10.746Z",
  "networkType": "ethereum",
  "devdoc": {
    "kind": "dev",
    "methods": {},
    "version": 1
  },
  "userdoc": {
    "kind": "user",
    "methods": {
      "addCommentToPost(bytes32,string)": {
        "notice": "Comments Public Functions"
      }
    },
    "version": 1
  }
}