{
  "contractName": "Blog",
  "abi": [
    {
      "inputs": [
        {
          "internalType": "string",
          "name": "_name",
          "type": "string"
        }
      ],
      "stateMutability": "nonpayable",
      "type": "constructor"
    },
    {
      "anonymous": false,
      "inputs": [
        {
          "indexed": false,
          "internalType": "string",
          "name": "name",
          "type": "string"
        },
        {
          "indexed": false,
          "internalType": "string",
          "name": "username",
          "type": "string"
        },
        {
          "indexed": false,
          "internalType": "address",
          "name": "authorsAddress",
          "type": "address"
        }
      ],
      "name": "authorAdded",
      "type": "event"
    },
    {
      "anonymous": false,
      "inputs": [
        {
          "indexed": false,
          "internalType": "bytes32",
          "name": "id",
          "type": "bytes32"
        },
        {
          "indexed": false,
          "internalType": "string",
          "name": "title",
          "type": "string"
        },
        {
          "indexed": false,
          "internalType": "address",
          "name": "poster",
          "type": "address"
        }
      ],
      "name": "postCreated",
      "type": "event"
    },
    {
      "anonymous": false,
      "inputs": [
        {
          "indexed": false,
          "internalType": "bytes32",
          "name": "id",
          "type": "bytes32"
        },
        {
          "indexed": false,
          "internalType": "string",
          "name": "title",
          "type": "string"
        },
        {
          "indexed": false,
          "internalType": "string",
          "name": "slug",
          "type": "string"
        }
      ],
      "name": "postPublished",
      "type": "event"
    },
    {
      "anonymous": false,
      "inputs": [
        {
          "indexed": false,
          "internalType": "bytes32",
          "name": "id",
          "type": "bytes32"
        },
        {
          "indexed": false,
          "internalType": "string",
          "name": "title",
          "type": "string"
        },
        {
          "indexed": false,
          "internalType": "string",
          "name": "slug",
          "type": "string"
        }
      ],
      "name": "postUnlisted",
      "type": "event"
    },
    {
      "anonymous": false,
      "inputs": [
        {
          "indexed": false,
          "internalType": "bytes32",
          "name": "id",
          "type": "bytes32"
        },
        {
          "indexed": false,
          "internalType": "string",
          "name": "title",
          "type": "string"
        },
        {
          "indexed": false,
          "internalType": "string",
          "name": "slug",
          "type": "string"
        }
      ],
      "name": "postUnpublished",
      "type": "event"
    },
    {
      "inputs": [
        {
          "internalType": "string",
          "name": "name",
          "type": "string"
        },
        {
          "internalType": "string",
          "name": "username",
          "type": "string"
        },
        {
          "internalType": "string",
          "name": "website",
          "type": "string"
        },
        {
          "internalType": "string",
          "name": "avatar",
          "type": "string"
        }
      ],
      "name": "authorCreateProfile",
      "outputs": [],
      "stateMutability": "nonpayable",
      "type": "function"
    },
    {
      "inputs": [
        {
          "internalType": "address",
          "name": "userAddress",
          "type": "address"
        }
      ],
      "name": "authorFetchProfileByAddress",
      "outputs": [
        {
          "internalType": "string",
          "name": "name",
          "type": "string"
        },
        {
          "internalType": "string",
          "name": "username",
          "type": "string"
        },
        {
          "internalType": "string",
          "name": "avatar",
          "type": "string"
        },
        {
          "internalType": "string",
          "name": "website",
          "type": "string"
        }
      ],
      "stateMutability": "view",
      "type": "function"
    },
    {
      "inputs": [
        {
          "internalType": "string",
          "name": "_username",
          "type": "string"
        }
      ],
      "name": "authorFetchProfileByUsername",
      "outputs": [
        {
          "internalType": "string",
          "name": "name",
          "type": "string"
        },
        {
          "internalType": "string",
          "name": "username",
          "type": "string"
        },
        {
          "internalType": "string",
          "name": "avatar",
          "type": "string"
        },
        {
          "internalType": "string",
          "name": "website",
          "type": "string"
        }
      ],
      "stateMutability": "view",
      "type": "function"
    },
    {
      "inputs": [
        {
          "internalType": "string",
          "name": "name",
          "type": "string"
        },
        {
          "internalType": "string",
          "name": "username",
          "type": "string"
        },
        {
          "internalType": "string",
          "name": "website",
          "type": "string"
        },
        {
          "internalType": "string",
          "name": "avatar",
          "type": "string"
        }
      ],
      "name": "authorUpdateProfile",
      "outputs": [],
      "stateMutability": "nonpayable",
      "type": "function"
    },
    {
      "inputs": [
        {
          "internalType": "bytes32",
          "name": "postId",
          "type": "bytes32"
        },
        {
          "internalType": "bool",
          "name": "nsfw",
          "type": "bool"
        }
      ],
      "name": "changePostNSFWStatus",
      "outputs": [],
      "stateMutability": "nonpayable",
      "type": "function"
    },
    {
      "inputs": [
        {
          "internalType": "string",
          "name": "title",
          "type": "string"
        },
        {
          "internalType": "string",
          "name": "slug",
          "type": "string"
        },
        {
          "internalType": "string",
          "name": "image",
          "type": "string"
        },
        {
          "internalType": "string",
          "name": "synopsis",
          "type": "string"
        },
        {
          "internalType": "bool",
          "name": "nsfw",
          "type": "bool"
        },
        {
          "internalType": "string",
          "name": "contentId",
          "type": "string"
        }
      ],
      "name": "createNewPost",
      "outputs": [
        {
          "internalType": "bytes32",
          "name": "postId",
          "type": "bytes32"
        }
      ],
      "stateMutability": "nonpayable",
      "type": "function"
    },
    {
      "inputs": [
        {
          "internalType": "uint256",
          "name": "page",
          "type": "uint256"
        }
      ],
      "name": "fetchPaginatedPosts",
      "outputs": [
        {
          "internalType": "bytes32[12]",
          "name": "",
          "type": "bytes32[12]"
        }
      ],
      "stateMutability": "view",
      "type": "function"
    },
    {
      "inputs": [
        {
          "internalType": "bytes32",
          "name": "_postId",
          "type": "bytes32"
        }
      ],
      "name": "getPost",
      "outputs": [
        {
          "internalType": "bytes32",
          "name": "postId",
          "type": "bytes32"
        },
        {
          "internalType": "string",
          "name": "title",
          "type": "string"
        },
        {
          "internalType": "string",
          "name": "image",
          "type": "string"
        },
        {
          "internalType": "string",
          "name": "slug",
          "type": "string"
        },
        {
          "internalType": "string",
          "name": "synopsis",
          "type": "string"
        },
        {
          "internalType": "bool",
          "name": "nsfw",
          "type": "bool"
        },
        {
          "internalType": "enum Posts.PostType",
          "name": "postType",
          "type": "uint8"
        },
        {
          "internalType": "string",
          "name": "contentId",
          "type": "string"
        },
        {
          "internalType": "uint256",
          "name": "createdAt",
          "type": "uint256"
        },
        {
          "internalType": "uint256",
          "name": "published",
          "type": "uint256"
        }
      ],
      "stateMutability": "view",
      "type": "function"
    },
    {
      "inputs": [
        {
          "internalType": "string",
          "name": "_slug",
          "type": "string"
        }
      ],
      "name": "getPostBySlug",
      "outputs": [
        {
          "internalType": "bytes32",
          "name": "postId",
          "type": "bytes32"
        },
        {
          "internalType": "string",
          "name": "title",
          "type": "string"
        },
        {
          "internalType": "string",
          "name": "image",
          "type": "string"
        },
        {
          "internalType": "string",
          "name": "slug",
          "type": "string"
        },
        {
          "internalType": "string",
          "name": "synopsis",
          "type": "string"
        },
        {
          "internalType": "bool",
          "name": "nsfw",
          "type": "bool"
        },
        {
          "internalType": "enum Posts.PostType",
          "name": "postType",
          "type": "uint8"
        },
        {
          "internalType": "string",
          "name": "contentId",
          "type": "string"
        },
        {
          "internalType": "uint256",
          "name": "createdAt",
          "type": "uint256"
        },
        {
          "internalType": "uint256",
          "name": "published",
          "type": "uint256"
        }
      ],
      "stateMutability": "view",
      "type": "function"
    },
    {
      "inputs": [
        {
          "internalType": "uint256",
          "name": "",
          "type": "uint256"
        }
      ],
      "name": "postsArray",
      "outputs": [
        {
          "internalType": "bytes32",
          "name": "",
          "type": "bytes32"
        }
      ],
      "stateMutability": "view",
      "type": "function"
    },
    {
      "inputs": [
        {
          "internalType": "bytes32",
          "name": "postId",
          "type": "bytes32"
        }
      ],
      "name": "publishPost",
      "outputs": [],
      "stateMutability": "nonpayable",
      "type": "function"
    },
    {
      "inputs": [
        {
          "internalType": "bytes32",
          "name": "postId",
          "type": "bytes32"
        }
      ],
      "name": "unPublishPost",
      "outputs": [],
      "stateMutability": "nonpayable",
      "type": "function"
    }
  ],
  "bytecode": "0x60806040523480156200001157600080fd5b506040516200319c3803806200319c833981810160405281019062000037919062000179565b80600690805190602001906200004f92919062000057565b5050620002ef565b82805462000065906200025b565b90600052602060002090601f016020900481019282620000895760008555620000d5565b82601f10620000a457805160ff1916838001178555620000d5565b82800160010185558215620000d5579182015b82811115620000d4578251825591602001919060010190620000b7565b5b509050620000e49190620000e8565b5090565b5b8082111562000103576000816000905550600101620000e9565b5090565b60006200011e6200011884620001f2565b620001be565b9050828152602081018484840111156200013757600080fd5b6200014484828562000225565b509392505050565b600082601f8301126200015e57600080fd5b81516200017084826020860162000107565b91505092915050565b6000602082840312156200018c57600080fd5b600082015167ffffffffffffffff811115620001a757600080fd5b620001b5848285016200014c565b91505092915050565b6000604051905081810181811067ffffffffffffffff82111715620001e857620001e7620002c0565b5b8060405250919050565b600067ffffffffffffffff82111562000210576200020f620002c0565b5b601f19601f8301169050602081019050919050565b60005b838110156200024557808201518184015260208101905062000228565b8381111562000255576000848401525b50505050565b600060028204905060018216806200027457607f821691505b602082108114156200028b576200028a62000291565b5b50919050565b7f4e487b7100000000000000000000000000000000000000000000000000000000600052602260045260246000fd5b7f4e487b7100000000000000000000000000000000000000000000000000000000600052604160045260246000fd5b612e9d80620002ff6000396000f3fe608060405234801561001057600080fd5b50600436106100b45760003560e01c806393e43bbe1161007157806393e43bbe14610189578063cb1dd744146101c2578063d9a85fc1146101f5578063dd7cbfbc1461022e578063efe8273114610261578063fe639b5014610291576100b4565b8063068020a4146100b9578063504ada3d146100d557806355ac0aa5146100f1578063729bd0da1461010d57806379e192781461013d5780637c280f5914610159575b600080fd5b6100d360048036038101906100ce9190612016565b6102ad565b005b6100ef60048036038101906100ea91906120bc565b6104bf565b005b61010b6004803603810190610106919061203f565b61077e565b005b61012760048036038101906101229190612280565b6108f5565b6040516101349190612759565b60405180910390f35b610157600480360381019061015291906120bc565b610919565b005b610173600480360381019061016e9190612280565b610966565b604051610180919061273d565b60405180910390f35b6101a3600480360381019061019e9190612016565b610ab3565b6040516101b99a999897969594939291906127b9565b60405180910390f35b6101dc60048036038101906101d7919061207b565b610f17565b6040516101ec9493929190612902565b60405180910390f35b61020f600480360381019061020a919061207b565b6112cf565b6040516102259a999897969594939291906127b9565b60405180910390f35b61024860048036038101906102439190611fed565b61138b565b6040516102589493929190612902565b60405180910390f35b61027b6004803603810190610276919061217f565b61168f565b6040516102889190612759565b60405180910390f35b6102ab60048036038101906102a69190612016565b611c30565b005b80600060036000838152602001908152602001600020600001541415610308576040517f08c379a00000000000000000000000000000000000000000000000000000000081526004016102ff90612963565b60405180910390fd5b813373ffffffffffffffffffffffffffffffffffffffff166003600083815260200190815260200160002060050160008154811061036f577f4e487b7100000000000000000000000000000000000000000000000000000000600052603260045260246000fd5b9060005260206000200160009054906101000a900473ffffffffffffffffffffffffffffffffffffffff1673ffffffffffffffffffffffffffffffffffffffff16146103f0576040517f08c379a00000000000000000000000000000000000000000000000000000000081526004016103e790612a23565b60405180910390fd5b600060036000858152602001908152602001600020600a0160006101000a81548160ff02191690836001811115610450577f4e487b7100000000000000000000000000000000000000000000000000000000600052602160045260246000fd5b02179055507f3f3fed94c49a3085a65783e3477e3cad54324e7098d92af12f0fa13b7e334b178360036000868152602001908152602001600020600101600360008781526020019081526020016000206002016040516104b293929190612878565b60405180910390a1505050565b82600073ffffffffffffffffffffffffffffffffffffffff166001826040516104e891906126f1565b908152602001604051809103902060009054906101000a900473ffffffffffffffffffffffffffffffffffffffff1673ffffffffffffffffffffffffffffffffffffffff1614806105a257503373ffffffffffffffffffffffffffffffffffffffff1660018260405161055b91906126f1565b908152602001604051809103902060009054906101000a900473ffffffffffffffffffffffffffffffffffffffff1673ffffffffffffffffffffffffffffffffffffffff16145b6105e1576040517f08c379a00000000000000000000000000000000000000000000000000000000081526004016105d890612983565b60405180910390fd5b6040518060a001604052808681526020018381526020018481526020018581526020013373ffffffffffffffffffffffffffffffffffffffff168152506000803373ffffffffffffffffffffffffffffffffffffffff1673ffffffffffffffffffffffffffffffffffffffff1681526020019081526020016000206000820151816000019080519060200190610678929190611e6b565b506020820151816001019080519060200190610695929190611e6b565b5060408201518160020190805190602001906106b2929190611e6b565b5060608201518160030190805190602001906106cf929190611e6b565b5060808201518160040160006101000a81548173ffffffffffffffffffffffffffffffffffffffff021916908373ffffffffffffffffffffffffffffffffffffffff1602179055509050503360018560405161072b91906126f1565b908152602001604051809103902060006101000a81548173ffffffffffffffffffffffffffffffffffffffff021916908373ffffffffffffffffffffffffffffffffffffffff1602179055505050505050565b816000600360008381526020019081526020016000206000015414156107d9576040517f08c379a00000000000000000000000000000000000000000000000000000000081526004016107d090612963565b60405180910390fd5b823373ffffffffffffffffffffffffffffffffffffffff1660036000838152602001908152602001600020600501600081548110610840577f4e487b7100000000000000000000000000000000000000000000000000000000600052603260045260246000fd5b9060005260206000200160009054906101000a900473ffffffffffffffffffffffffffffffffffffffff1673ffffffffffffffffffffffffffffffffffffffff16146108c1576040517f08c379a00000000000000000000000000000000000000000000000000000000081526004016108b890612a23565b60405180910390fd5b826003600086815260200190815260200160002060070160006101000a81548160ff02191690831515021790555050505050565b6002818154811061090557600080fd5b906000526020600020016000915090505481565b610925848484846104bf565b7fef47bb899dbff275b35f1e639da3065cc8e640ca71b09a9aeec65c77006ddc5c848433604051610958939291906128bd565b60405180910390a150505050565b61096e611ef1565b6000600c905061097c611ef1565b600084141561098a57600193505b600082856109989190612b0d565b90506000600160028054905010156109b65782945050505050610aae565b81600280549050116109d75760016002805490506109d49190612b67565b91505b60005b848111610aa55760028381548110610a1b577f4e487b7100000000000000000000000000000000000000000000000000000000600052603260045260246000fd5b90600052602060002001548483600c8110610a5f577f4e487b7100000000000000000000000000000000000000000000000000000000600052603260045260246000fd5b6020020181815250506000831415610a7657610aa5565b8180610a8190612cb0565b9250508280610a8f90612c54565b9350508080610a9d90612cb0565b9150506109da565b50829450505050505b919050565b600060608060608060008060606000808a600060036000838152602001908152602001600020600001541415610b1e576040517f08c379a0000000000000000000000000000000000000000000000000000000008152600401610b1590612963565b60405180910390fd5b8b9a50600360008d81526020019081526020016000206001018054610b4290612c7e565b80601f0160208091040260200160405190810160405280929190818152602001828054610b6e90612c7e565b8015610bbb5780601f10610b9057610100808354040283529160200191610bbb565b820191906000526020600020905b815481529060010190602001808311610b9e57829003601f168201915b50505050509950600360008d81526020019081526020016000206002018054610be390612c7e565b80601f0160208091040260200160405190810160405280929190818152602001828054610c0f90612c7e565b8015610c5c5780601f10610c3157610100808354040283529160200191610c5c565b820191906000526020600020905b815481529060010190602001808311610c3f57829003601f168201915b50505050509750600360008d81526020019081526020016000206004018054610c8490612c7e565b80601f0160208091040260200160405190810160405280929190818152602001828054610cb090612c7e565b8015610cfd5780601f10610cd257610100808354040283529160200191610cfd565b820191906000526020600020905b815481529060010190602001808311610ce057829003601f168201915b50505050509850600360008d81526020019081526020016000206003018054610d2590612c7e565b80601f0160208091040260200160405190810160405280929190818152602001828054610d5190612c7e565b8015610d9e5780601f10610d7357610100808354040283529160200191610d9e565b820191906000526020600020905b815481529060010190602001808311610d8157829003601f168201915b50505050509650600360008d815260200190815260200160002060070160009054906101000a900460ff169550600360008d815260200190815260200160002060070160029054906101000a900460ff169450600360008d81526020019081526020016000206008018054610e1290612c7e565b80601f0160208091040260200160405190810160405280929190818152602001828054610e3e90612c7e565b8015610e8b5780601f10610e6057610100808354040283529160200191610e8b565b820191906000526020600020905b815481529060010190602001808311610e6e57829003601f168201915b50505050509350600360008d8152602001908152602001600020600901549250600360008d8152602001908152602001600020600a0160009054906101000a900460ff166001811115610f07577f4e487b7100000000000000000000000000000000000000000000000000000000600052602160045260246000fd5b9150509193959799509193959799565b6060806060806000600186604051610f2f91906126f1565b908152602001604051809103902060009054906101000a900473ffffffffffffffffffffffffffffffffffffffff169050600073ffffffffffffffffffffffffffffffffffffffff168173ffffffffffffffffffffffffffffffffffffffff161415610fd0576040517f08c379a0000000000000000000000000000000000000000000000000000000008152600401610fc7906129c3565b60405180910390fd5b6112bf6000808373ffffffffffffffffffffffffffffffffffffffff1673ffffffffffffffffffffffffffffffffffffffff1681526020019081526020016000206040518060a001604052908160008201805461102c90612c7e565b80601f016020809104026020016040519081016040528092919081815260200182805461105890612c7e565b80156110a55780601f1061107a576101008083540402835291602001916110a5565b820191906000526020600020905b81548152906001019060200180831161108857829003601f168201915b505050505081526020016001820180546110be90612c7e565b80601f01602080910402602001604051908101604052809291908181526020018280546110ea90612c7e565b80156111375780601f1061110c57610100808354040283529160200191611137565b820191906000526020600020905b81548152906001019060200180831161111a57829003601f168201915b5050505050815260200160028201805461115090612c7e565b80601f016020809104026020016040519081016040528092919081815260200182805461117c90612c7e565b80156111c95780601f1061119e576101008083540402835291602001916111c9565b820191906000526020600020905b8154815290600101906020018083116111ac57829003601f168201915b505050505081526020016003820180546111e290612c7e565b80601f016020809104026020016040519081016040528092919081815260200182805461120e90612c7e565b801561125b5780601f106112305761010080835404028352916020019161125b565b820191906000526020600020905b81548152906001019060200180831161123e57829003601f168201915b505050505081526020016004820160009054906101000a900473ffffffffffffffffffffffffffffffffffffffff1673ffffffffffffffffffffffffffffffffffffffff1673ffffffffffffffffffffffffffffffffffffffff1681525050611e42565b9450945094509450509193509193565b600060608060608060008060606000808a60006004826040516112f291906126f1565b9081526020016040518091039020541415611342576040517f08c379a0000000000000000000000000000000000000000000000000000000008152600401611339906129a3565b60405180910390fd5b61136960048d60405161135591906126f1565b908152602001604051809103902054610ab3565b9a509a509a509a509a509a509a509a509a509a50509193959799509193959799565b6060806060806116806000808773ffffffffffffffffffffffffffffffffffffffff1673ffffffffffffffffffffffffffffffffffffffff1681526020019081526020016000206040518060a00160405290816000820180546113ed90612c7e565b80601f016020809104026020016040519081016040528092919081815260200182805461141990612c7e565b80156114665780601f1061143b57610100808354040283529160200191611466565b820191906000526020600020905b81548152906001019060200180831161144957829003601f168201915b5050505050815260200160018201805461147f90612c7e565b80601f01602080910402602001604051908101604052809291908181526020018280546114ab90612c7e565b80156114f85780601f106114cd576101008083540402835291602001916114f8565b820191906000526020600020905b8154815290600101906020018083116114db57829003601f168201915b5050505050815260200160028201805461151190612c7e565b80601f016020809104026020016040519081016040528092919081815260200182805461153d90612c7e565b801561158a5780601f1061155f5761010080835404028352916020019161158a565b820191906000526020600020905b81548152906001019060200180831161156d57829003601f168201915b505050505081526020016003820180546115a390612c7e565b80601f01602080910402602001604051908101604052809291908181526020018280546115cf90612c7e565b801561161c5780601f106115f15761010080835404028352916020019161161c565b820191906000526020600020905b8154815290600101906020018083116115ff57829003601f168201915b505050505081526020016004820160009054906101000a900473ffffffffffffffffffffffffffffffffffffffff1673ffffffffffffffffffffffffffffffffffffffff1673ffffffffffffffffffffffffffffffffffffffff1681525050611e42565b93509350935093509193509193565b60008560006004826040516116a491906126f1565b908152602001604051809103902054146116f3576040517f08c379a00000000000000000000000000000000000000000000000000000000081526004016116ea906129e3565b60405180910390fd5b87873360405160200161170893929190612708565b6040516020818303038152906040528051906020012091506000600360008481526020019081526020016000206000015414611779576040517f08c379a000000000000000000000000000000000000000000000000000000000815260040161177090612a03565b60405180910390fd5b816003600084815260200190815260200160002060000181905550876003600084815260200190815260200160002060010190805190602001906117be929190611e6b565b50866003600084815260200190815260200160002060020190805190602001906117e9929190611e6b565b5085600360008481526020019081526020016000206004019080519060200190611814929190611e6b565b508460036000848152602001908152602001600020600301908051906020019061183f929190611e6b565b50836003600084815260200190815260200160002060070160006101000a81548160ff02191690831515021790555060016003600084815260200190815260200160002060070160016101000a81548160ff02191690831515021790555060006003600084815260200190815260200160002060070160026101000a81548160ff021916908360038111156118fd577f4e487b7100000000000000000000000000000000000000000000000000000000600052602160045260246000fd5b02179055508260036000848152602001908152602001600020600801908051906020019061192c929190611e6b565b50426003600084815260200190815260200160002060090181905550600160036000848152602001908152602001600020600a0160006101000a81548160ff021916908360018111156119a8577f4e487b7100000000000000000000000000000000000000000000000000000000600052602160045260246000fd5b021790555060036000838152602001908152602001600020600501339080600181540180825580915050600190039060005260206000200160009091909190916101000a81548173ffffffffffffffffffffffffffffffffffffffff021916908373ffffffffffffffffffffffffffffffffffffffff16021790555060405180606001604052803373ffffffffffffffffffffffffffffffffffffffff168152602001600115158152602001600115158152506003600084815260200190815260200160002060060160003373ffffffffffffffffffffffffffffffffffffffff1673ffffffffffffffffffffffffffffffffffffffff16815260200190815260200160002060008201518160000160006101000a81548173ffffffffffffffffffffffffffffffffffffffff021916908373ffffffffffffffffffffffffffffffffffffffff16021790555060208201518160000160146101000a81548160ff02191690831515021790555060408201518160000160156101000a81548160ff02191690831515021790555090505081600488604051611b4991906126f1565b908152602001604051809103902081905550600560003373ffffffffffffffffffffffffffffffffffffffff1673ffffffffffffffffffffffffffffffffffffffff16815260200190815260200160002082908060018154018082558091505060019003906000526020600020016000909190919091505560028290806001815401808255809150506001900390600052602060002001600090919091909150557f29a21b7f0b67a6e288b021ea73f30160e1f4abc8c24dbe956ef95aaa4643d45a828989604051611c1d93929190612774565b60405180910390a1509695505050505050565b80600060036000838152602001908152602001600020600001541415611c8b576040517f08c379a0000000000000000000000000000000000000000000000000000000008152600401611c8290612963565b60405180910390fd5b813373ffffffffffffffffffffffffffffffffffffffff1660036000838152602001908152602001600020600501600081548110611cf2577f4e487b7100000000000000000000000000000000000000000000000000000000600052603260045260246000fd5b9060005260206000200160009054906101000a900473ffffffffffffffffffffffffffffffffffffffff1673ffffffffffffffffffffffffffffffffffffffff1614611d73576040517f08c379a0000000000000000000000000000000000000000000000000000000008152600401611d6a90612a23565b60405180910390fd5b600160036000858152602001908152602001600020600a0160006101000a81548160ff02191690836001811115611dd3577f4e487b7100000000000000000000000000000000000000000000000000000000600052602160045260246000fd5b02179055507f29a21b7f0b67a6e288b021ea73f30160e1f4abc8c24dbe956ef95aaa4643d45a836003600086815260200190815260200160002060010160036000878152602001908152602001600020600201604051611e3593929190612878565b60405180910390a1505050565b606080606080846000015193508460600151925084602001519150846040015190509193509193565b828054611e7790612c7e565b90600052602060002090601f016020900481019282611e995760008555611ee0565b82601f10611eb257805160ff1916838001178555611ee0565b82800160010185558215611ee0579182015b82811115611edf578251825591602001919060010190611ec4565b5b509050611eed9190611f14565b5090565b604051806101800160405280600c90602082028036833780820191505090505090565b5b80821115611f2d576000816000905550600101611f15565b5090565b6000611f44611f3f84612a74565b612a43565b905082815260208101848484011115611f5c57600080fd5b611f67848285612c12565b509392505050565b600081359050611f7e81612e0b565b92915050565b600081359050611f9381612e22565b92915050565b600081359050611fa881612e39565b92915050565b600082601f830112611fbf57600080fd5b8135611fcf848260208601611f31565b91505092915050565b600081359050611fe781612e50565b92915050565b600060208284031215611fff57600080fd5b600061200d84828501611f6f565b91505092915050565b60006020828403121561202857600080fd5b600061203684828501611f99565b91505092915050565b6000806040838503121561205257600080fd5b600061206085828601611f99565b925050602061207185828601611f84565b9150509250929050565b60006020828403121561208d57600080fd5b600082013567ffffffffffffffff8111156120a757600080fd5b6120b384828501611fae565b91505092915050565b600080600080608085870312156120d257600080fd5b600085013567ffffffffffffffff8111156120ec57600080fd5b6120f887828801611fae565b945050602085013567ffffffffffffffff81111561211557600080fd5b61212187828801611fae565b935050604085013567ffffffffffffffff81111561213e57600080fd5b61214a87828801611fae565b925050606085013567ffffffffffffffff81111561216757600080fd5b61217387828801611fae565b91505092959194509250565b60008060008060008060c0878903121561219857600080fd5b600087013567ffffffffffffffff8111156121b257600080fd5b6121be89828a01611fae565b965050602087013567ffffffffffffffff8111156121db57600080fd5b6121e789828a01611fae565b955050604087013567ffffffffffffffff81111561220457600080fd5b61221089828a01611fae565b945050606087013567ffffffffffffffff81111561222d57600080fd5b61223989828a01611fae565b935050608061224a89828a01611f84565b92505060a087013567ffffffffffffffff81111561226757600080fd5b61227389828a01611fae565b9150509295509295509295565b60006020828403121561229257600080fd5b60006122a084828501611fd8565b91505092915050565b60006122b5838361234d565b60208301905092915050565b6122ca81612b9b565b82525050565b6122e16122dc82612b9b565b612cf9565b82525050565b6122f081612ac3565b6122fa8184612ae6565b925061230582612aa4565b8060005b8381101561233657815161231d87826122a9565b965061232883612ad9565b925050600181019050612309565b505050505050565b61234781612bad565b82525050565b61235681612bb9565b82525050565b61236581612bb9565b82525050565b61237481612c00565b82525050565b600061238582612ace565b61238f8185612af1565b935061239f818560208601612c21565b6123a881612dd9565b840191505092915050565b60006123be82612ace565b6123c88185612b02565b93506123d8818560208601612c21565b80840191505092915050565b600081546123f181612c7e565b6123fb8186612af1565b9450600182166000811461241657600181146124285761245b565b60ff198316865260208601935061245b565b61243185612aae565b60005b8381101561245357815481890152600182019150602081019050612434565b808801955050505b50505092915050565b6000612471601883612af1565b91507f5468697320706f737420646f65736e27742065786973742e00000000000000006000830152602082019050919050565b60006124b1602883612af1565b91507f596f752063616e206e6f74206d616b65206368616e67657320746f207468697360008301527f2070726f66696c650000000000000000000000000000000000000000000000006020830152604082019050919050565b6000612517601883612af1565b91507f5468697320706f737420646f6573206e6f7420657869737400000000000000006000830152602082019050919050565b6000612557602383612af1565b91507f4e6f2070726f66696c652077697468207468617420757365726e616d6520666f60008301527f756e6400000000000000000000000000000000000000000000000000000000006020830152604082019050919050565b60006125bd602a83612af1565b91507f506c656173652063686f6f7365206120756e6971756520736c756720666f722060008301527f796f757220706f73742e000000000000000000000000000000000000000000006020830152604082019050919050565b6000612623602283612af1565b91507f4120706f73742077697468207468697320494420616c7265616479206578697360008301527f74730000000000000000000000000000000000000000000000000000000000006020830152604082019050919050565b6000612689602d83612af1565b91507f596f7520617265206e6f7420746865207072696d61727920617574686f72206660008301527f6f72207468697320706f73742e000000000000000000000000000000000000006020830152604082019050919050565b6126eb81612bf6565b82525050565b60006126fd82846123b3565b915081905092915050565b600061271482866123b3565b915061272082856123b3565b915061272c82846122d0565b601482019150819050949350505050565b60006101808201905061275360008301846122e7565b92915050565b600060208201905061276e600083018461235c565b92915050565b6000606082019050612789600083018661235c565b818103602083015261279b818561237a565b905081810360408301526127af818461237a565b9050949350505050565b6000610140820190506127cf600083018d61235c565b81810360208301526127e1818c61237a565b905081810360408301526127f5818b61237a565b90508181036060830152612809818a61237a565b9050818103608083015261281d818961237a565b905061282c60a083018861233e565b61283960c083018761236b565b81810360e083015261284b818661237a565b905061285b6101008301856126e2565b6128696101208301846126e2565b9b9a5050505050505050505050565b600060608201905061288d600083018661235c565b818103602083015261289f81856123e4565b905081810360408301526128b381846123e4565b9050949350505050565b600060608201905081810360008301526128d7818661237a565b905081810360208301526128eb818561237a565b90506128fa60408301846122c1565b949350505050565b6000608082019050818103600083015261291c818761237a565b90508181036020830152612930818661237a565b90508181036040830152612944818561237a565b90508181036060830152612958818461237a565b905095945050505050565b6000602082019050818103600083015261297c81612464565b9050919050565b6000602082019050818103600083015261299c816124a4565b9050919050565b600060208201905081810360008301526129bc8161250a565b9050919050565b600060208201905081810360008301526129dc8161254a565b9050919050565b600060208201905081810360008301526129fc816125b0565b9050919050565b60006020820190508181036000830152612a1c81612616565b9050919050565b60006020820190508181036000830152612a3c8161267c565b9050919050565b6000604051905081810181811067ffffffffffffffff82111715612a6a57612a69612daa565b5b8060405250919050565b600067ffffffffffffffff821115612a8f57612a8e612daa565b5b601f19601f8301169050602081019050919050565b6000819050919050565b60008190508160005260206000209050919050565b6000600c9050919050565b600081519050919050565b6000602082019050919050565b600081905092915050565b600082825260208201905092915050565b600081905092915050565b6000612b1882612bf6565b9150612b2383612bf6565b9250817fffffffffffffffffffffffffffffffffffffffffffffffffffffffffffffffff0483118215151615612b5c57612b5b612d1d565b5b828202905092915050565b6000612b7282612bf6565b9150612b7d83612bf6565b925082821015612b9057612b8f612d1d565b5b828203905092915050565b6000612ba682612bd6565b9050919050565b60008115159050919050565b6000819050919050565b6000819050612bd182612df7565b919050565b600073ffffffffffffffffffffffffffffffffffffffff82169050919050565b6000819050919050565b6000612c0b82612bc3565b9050919050565b82818337600083830152505050565b60005b83811015612c3f578082015181840152602081019050612c24565b83811115612c4e576000848401525b50505050565b6000612c5f82612bf6565b91506000821415612c7357612c72612d1d565b5b600182039050919050565b60006002820490506001821680612c9657607f821691505b60208210811415612caa57612ca9612d7b565b5b50919050565b6000612cbb82612bf6565b91507fffffffffffffffffffffffffffffffffffffffffffffffffffffffffffffffff821415612cee57612ced612d1d565b5b600182019050919050565b6000612d0482612d0b565b9050919050565b6000612d1682612dea565b9050919050565b7f4e487b7100000000000000000000000000000000000000000000000000000000600052601160045260246000fd5b7f4e487b7100000000000000000000000000000000000000000000000000000000600052602160045260246000fd5b7f4e487b7100000000000000000000000000000000000000000000000000000000600052602260045260246000fd5b7f4e487b7100000000000000000000000000000000000000000000000000000000600052604160045260246000fd5b6000601f19601f8301169050919050565b60008160601b9050919050565b60048110612e0857612e07612d4c565b5b50565b612e1481612b9b565b8114612e1f57600080fd5b50565b612e2b81612bad565b8114612e3657600080fd5b50565b612e4281612bb9565b8114612e4d57600080fd5b50565b612e5981612bf6565b8114612e6457600080fd5b5056fea26469706673582212202a9cbce4484387724ba18ab3bc06c814ebe6b02cd99e231390af175986b39c3c64736f6c63430008000033",
  "immutableReferences": {},
  "source": "// SPDX-License-Identifier: UNLICENSED\npragma solidity ^0.8.0;\n\nimport \"./subcontracts/Authors.sol\";\nimport \"./subcontracts/Posts.sol\";\n\n// import \"../node_modules/@openzeppelin/contracts/access/Ownable.sol\";\n\ncontract Blog is Authors, Posts {\n    string name;\n\n    constructor(string memory _name) {\n        name = _name;\n    }\n}\n",
  "sourcePath": "/Users/ghostffcode/Documents/UpkitStudio/etherblog/contracts/Blog.sol",
  "compiler": {
    "name": "solc",
    "version": "0.8.0+commit.c7dfd78e.Emscripten.clang"
  },
  "schemaVersion": "3.4.1",
  "updatedAt": "2021-07-17T22:48:45.639Z",
  "devdoc": {
    "kind": "dev",
    "methods": {},
    "version": 1
  },
  "userdoc": {
    "kind": "user",
    "methods": {},
    "version": 1
  }
}