{
  "contractName": "Posts",
  "abi": [
    {
      "anonymous": false,
      "inputs": [
        {
          "indexed": false,
          "internalType": "bytes32",
          "name": "id",
          "type": "bytes32"
        },
        {
          "indexed": false,
          "internalType": "string",
          "name": "title",
          "type": "string"
        },
        {
          "indexed": false,
          "internalType": "address",
          "name": "poster",
          "type": "address"
        }
      ],
      "name": "postCreated",
      "type": "event"
    },
    {
      "anonymous": false,
      "inputs": [
        {
          "indexed": false,
          "internalType": "bytes32",
          "name": "id",
          "type": "bytes32"
        },
        {
          "indexed": false,
          "internalType": "string",
          "name": "title",
          "type": "string"
        },
        {
          "indexed": false,
          "internalType": "string",
          "name": "slug",
          "type": "string"
        }
      ],
      "name": "postPublished",
      "type": "event"
    },
    {
      "anonymous": false,
      "inputs": [
        {
          "indexed": false,
          "internalType": "bytes32",
          "name": "id",
          "type": "bytes32"
        },
        {
          "indexed": false,
          "internalType": "string",
          "name": "title",
          "type": "string"
        },
        {
          "indexed": false,
          "internalType": "string",
          "name": "slug",
          "type": "string"
        }
      ],
      "name": "postUnlisted",
      "type": "event"
    },
    {
      "anonymous": false,
      "inputs": [
        {
          "indexed": false,
          "internalType": "bytes32",
          "name": "id",
          "type": "bytes32"
        },
        {
          "indexed": false,
          "internalType": "string",
          "name": "title",
          "type": "string"
        },
        {
          "indexed": false,
          "internalType": "string",
          "name": "slug",
          "type": "string"
        }
      ],
      "name": "postUnpublished",
      "type": "event"
    },
    {
      "inputs": [
        {
          "internalType": "uint256",
          "name": "",
          "type": "uint256"
        }
      ],
      "name": "postsArray",
      "outputs": [
        {
          "internalType": "bytes32",
          "name": "",
          "type": "bytes32"
        }
      ],
      "stateMutability": "view",
      "type": "function"
    },
    {
      "inputs": [
        {
          "internalType": "string",
          "name": "title",
          "type": "string"
        },
        {
          "internalType": "string",
          "name": "slug",
          "type": "string"
        },
        {
          "internalType": "string",
          "name": "image",
          "type": "string"
        },
        {
          "internalType": "string",
          "name": "synopsis",
          "type": "string"
        },
        {
          "internalType": "bool",
          "name": "nsfw",
          "type": "bool"
        },
        {
          "internalType": "string",
          "name": "contentId",
          "type": "string"
        }
      ],
      "name": "createNewPost",
      "outputs": [
        {
          "internalType": "bytes32",
          "name": "postId",
          "type": "bytes32"
        }
      ],
      "stateMutability": "nonpayable",
      "type": "function"
    },
    {
      "inputs": [
        {
          "internalType": "bytes32",
          "name": "postId",
          "type": "bytes32"
        },
        {
          "internalType": "bool",
          "name": "nsfw",
          "type": "bool"
        }
      ],
      "name": "changePostNSFWStatus",
      "outputs": [],
      "stateMutability": "nonpayable",
      "type": "function"
    },
    {
      "inputs": [
        {
          "internalType": "bytes32",
          "name": "postId",
          "type": "bytes32"
        }
      ],
      "name": "publishPost",
      "outputs": [],
      "stateMutability": "nonpayable",
      "type": "function"
    },
    {
      "inputs": [
        {
          "internalType": "bytes32",
          "name": "postId",
          "type": "bytes32"
        }
      ],
      "name": "unPublishPost",
      "outputs": [],
      "stateMutability": "nonpayable",
      "type": "function"
    },
    {
      "inputs": [
        {
          "internalType": "string",
          "name": "_slug",
          "type": "string"
        }
      ],
      "name": "getPostBySlug",
      "outputs": [
        {
          "internalType": "bytes32",
          "name": "postId",
          "type": "bytes32"
        },
        {
          "internalType": "string",
          "name": "title",
          "type": "string"
        },
        {
          "internalType": "string",
          "name": "image",
          "type": "string"
        },
        {
          "internalType": "string",
          "name": "slug",
          "type": "string"
        },
        {
          "internalType": "string",
          "name": "synopsis",
          "type": "string"
        },
        {
          "internalType": "bool",
          "name": "nsfw",
          "type": "bool"
        },
        {
          "internalType": "enum Posts.PostType",
          "name": "postType",
          "type": "uint8"
        },
        {
          "internalType": "string",
          "name": "contentId",
          "type": "string"
        },
        {
          "internalType": "uint256",
          "name": "createdAt",
          "type": "uint256"
        },
        {
          "internalType": "uint256",
          "name": "published",
          "type": "uint256"
        }
      ],
      "stateMutability": "view",
      "type": "function"
    },
    {
      "inputs": [
        {
          "internalType": "bytes32",
          "name": "_postId",
          "type": "bytes32"
        }
      ],
      "name": "getPost",
      "outputs": [
        {
          "internalType": "bytes32",
          "name": "postId",
          "type": "bytes32"
        },
        {
          "internalType": "string",
          "name": "title",
          "type": "string"
        },
        {
          "internalType": "string",
          "name": "image",
          "type": "string"
        },
        {
          "internalType": "string",
          "name": "slug",
          "type": "string"
        },
        {
          "internalType": "string",
          "name": "synopsis",
          "type": "string"
        },
        {
          "internalType": "bool",
          "name": "nsfw",
          "type": "bool"
        },
        {
          "internalType": "enum Posts.PostType",
          "name": "postType",
          "type": "uint8"
        },
        {
          "internalType": "string",
          "name": "contentId",
          "type": "string"
        },
        {
          "internalType": "uint256",
          "name": "createdAt",
          "type": "uint256"
        },
        {
          "internalType": "uint256",
          "name": "published",
          "type": "uint256"
        }
      ],
      "stateMutability": "view",
      "type": "function"
    },
    {
      "inputs": [
        {
          "internalType": "uint256",
          "name": "page",
          "type": "uint256"
        }
      ],
      "name": "fetchPaginatedPosts",
      "outputs": [
        {
          "internalType": "bytes32[12]",
          "name": "",
          "type": "bytes32[12]"
        }
      ],
      "stateMutability": "view",
      "type": "function"
    }
  ],
  "bytecode": "0x608060405234801561001057600080fd5b50612106806100206000396000f3fe608060405234801561001057600080fd5b50600436106100885760003560e01c806393e43bbe1161005b57806393e43bbe14610125578063d9a85fc11461015e578063efe8273114610197578063fe639b50146101c757610088565b8063068020a41461008d57806355ac0aa5146100a9578063729bd0da146100c55780637c280f59146100f5575b600080fd5b6100a760048036038101906100a2919061151a565b6101e3565b005b6100c360048036038101906100be9190611543565b6103f5565b005b6100df60048036038101906100da91906116c1565b61056c565b6040516100ec9190611abf565b60405180910390f35b61010f600480360381019061010a91906116c1565b610590565b60405161011c9190611aa3565b60405180910390f35b61013f600480360381019061013a919061151a565b6106dd565b6040516101559a99989796959493929190611b1f565b60405180910390f35b6101786004803603810190610173919061157f565b610b41565b60405161018e9a99989796959493929190611b1f565b60405180910390f35b6101b160048036038101906101ac91906115c0565b610bfd565b6040516101be9190611abf565b60405180910390f35b6101e160048036038101906101dc919061151a565b61119c565b005b8060006001600083815260200190815260200160002060000154141561023e576040517f08c379a000000000000000000000000000000000000000000000000000000000815260040161023590611c23565b60405180910390fd5b813373ffffffffffffffffffffffffffffffffffffffff16600160008381526020019081526020016000206005016000815481106102a5577f4e487b7100000000000000000000000000000000000000000000000000000000600052603260045260246000fd5b9060005260206000200160009054906101000a900473ffffffffffffffffffffffffffffffffffffffff1673ffffffffffffffffffffffffffffffffffffffff1614610326576040517f08c379a000000000000000000000000000000000000000000000000000000000815260040161031d90611ca3565b60405180910390fd5b600060016000858152602001908152602001600020600a0160006101000a81548160ff02191690836001811115610386577f4e487b7100000000000000000000000000000000000000000000000000000000600052602160045260246000fd5b02179055507f3f3fed94c49a3085a65783e3477e3cad54324e7098d92af12f0fa13b7e334b178360016000868152602001908152602001600020600101600160008781526020019081526020016000206002016040516103e893929190611bde565b60405180910390a1505050565b81600060016000838152602001908152602001600020600001541415610450576040517f08c379a000000000000000000000000000000000000000000000000000000000815260040161044790611c23565b60405180910390fd5b823373ffffffffffffffffffffffffffffffffffffffff16600160008381526020019081526020016000206005016000815481106104b7577f4e487b7100000000000000000000000000000000000000000000000000000000600052603260045260246000fd5b9060005260206000200160009054906101000a900473ffffffffffffffffffffffffffffffffffffffff1673ffffffffffffffffffffffffffffffffffffffff1614610538576040517f08c379a000000000000000000000000000000000000000000000000000000000815260040161052f90611ca3565b60405180910390fd5b826001600086815260200190815260200160002060070160006101000a81548160ff02191690831515021790555050505050565b6000818154811061057c57600080fd5b906000526020600020016000915090505481565b6105986113ad565b6000600c90506105a66113ad565b60008414156105b457600193505b600082856105c29190611d8d565b90506000600160008054905010156105e057829450505050506106d8565b81600080549050116106015760016000805490506105fe9190611de7565b91505b60005b8481116106cf5760008381548110610645577f4e487b7100000000000000000000000000000000000000000000000000000000600052603260045260246000fd5b90600052602060002001548483600c8110610689577f4e487b7100000000000000000000000000000000000000000000000000000000600052603260045260246000fd5b60200201818152505060008314156106a0576106cf565b81806106ab90611f30565b92505082806106b990611ed4565b93505080806106c790611f30565b915050610604565b50829450505050505b919050565b600060608060608060008060606000808a600060016000838152602001908152602001600020600001541415610748576040517f08c379a000000000000000000000000000000000000000000000000000000000815260040161073f90611c23565b60405180910390fd5b8b9a50600160008d8152602001908152602001600020600101805461076c90611efe565b80601f016020809104026020016040519081016040528092919081815260200182805461079890611efe565b80156107e55780601f106107ba576101008083540402835291602001916107e5565b820191906000526020600020905b8154815290600101906020018083116107c857829003601f168201915b50505050509950600160008d8152602001908152602001600020600201805461080d90611efe565b80601f016020809104026020016040519081016040528092919081815260200182805461083990611efe565b80156108865780601f1061085b57610100808354040283529160200191610886565b820191906000526020600020905b81548152906001019060200180831161086957829003601f168201915b50505050509750600160008d815260200190815260200160002060040180546108ae90611efe565b80601f01602080910402602001604051908101604052809291908181526020018280546108da90611efe565b80156109275780601f106108fc57610100808354040283529160200191610927565b820191906000526020600020905b81548152906001019060200180831161090a57829003601f168201915b50505050509850600160008d8152602001908152602001600020600301805461094f90611efe565b80601f016020809104026020016040519081016040528092919081815260200182805461097b90611efe565b80156109c85780601f1061099d576101008083540402835291602001916109c8565b820191906000526020600020905b8154815290600101906020018083116109ab57829003601f168201915b50505050509650600160008d815260200190815260200160002060070160009054906101000a900460ff169550600160008d815260200190815260200160002060070160029054906101000a900460ff169450600160008d81526020019081526020016000206008018054610a3c90611efe565b80601f0160208091040260200160405190810160405280929190818152602001828054610a6890611efe565b8015610ab55780601f10610a8a57610100808354040283529160200191610ab5565b820191906000526020600020905b815481529060010190602001808311610a9857829003601f168201915b50505050509350600160008d8152602001908152602001600020600901549250600160008d8152602001908152602001600020600a0160009054906101000a900460ff166001811115610b31577f4e487b7100000000000000000000000000000000000000000000000000000000600052602160045260246000fd5b9150509193959799509193959799565b600060608060608060008060606000808a6000600282604051610b649190611a57565b9081526020016040518091039020541415610bb4576040517f08c379a0000000000000000000000000000000000000000000000000000000008152600401610bab90611c43565b60405180910390fd5b610bdb60028d604051610bc79190611a57565b9081526020016040518091039020546106dd565b9a509a509a509a509a509a509a509a509a509a50509193959799509193959799565b6000856000600282604051610c129190611a57565b90815260200160405180910390205414610c61576040517f08c379a0000000000000000000000000000000000000000000000000000000008152600401610c5890611c63565b60405180910390fd5b878733604051602001610c7693929190611a6e565b6040516020818303038152906040528051906020012091506000600160008481526020019081526020016000206000015414610ce7576040517f08c379a0000000000000000000000000000000000000000000000000000000008152600401610cde90611c83565b60405180910390fd5b81600160008481526020019081526020016000206000018190555087600160008481526020019081526020016000206001019080519060200190610d2c9291906113d0565b5086600160008481526020019081526020016000206002019080519060200190610d579291906113d0565b5085600160008481526020019081526020016000206004019080519060200190610d829291906113d0565b5084600160008481526020019081526020016000206003019080519060200190610dad9291906113d0565b50836001600084815260200190815260200160002060070160006101000a81548160ff021916908315150217905550600180600084815260200190815260200160002060070160016101000a81548160ff02191690831515021790555060006001600084815260200190815260200160002060070160026101000a81548160ff02191690836003811115610e6a577f4e487b7100000000000000000000000000000000000000000000000000000000600052602160045260246000fd5b021790555082600160008481526020019081526020016000206008019080519060200190610e999291906113d0565b504260016000848152602001908152602001600020600901819055506001806000848152602001908152602001600020600a0160006101000a81548160ff02191690836001811115610f14577f4e487b7100000000000000000000000000000000000000000000000000000000600052602160045260246000fd5b021790555060016000838152602001908152602001600020600501339080600181540180825580915050600190039060005260206000200160009091909190916101000a81548173ffffffffffffffffffffffffffffffffffffffff021916908373ffffffffffffffffffffffffffffffffffffffff16021790555060405180606001604052803373ffffffffffffffffffffffffffffffffffffffff168152602001600115158152602001600115158152506001600084815260200190815260200160002060060160003373ffffffffffffffffffffffffffffffffffffffff1673ffffffffffffffffffffffffffffffffffffffff16815260200190815260200160002060008201518160000160006101000a81548173ffffffffffffffffffffffffffffffffffffffff021916908373ffffffffffffffffffffffffffffffffffffffff16021790555060208201518160000160146101000a81548160ff02191690831515021790555060408201518160000160156101000a81548160ff021916908315150217905550905050816002886040516110b59190611a57565b908152602001604051809103902081905550600360003373ffffffffffffffffffffffffffffffffffffffff1673ffffffffffffffffffffffffffffffffffffffff16815260200190815260200160002082908060018154018082558091505060019003906000526020600020016000909190919091505560008290806001815401808255809150506001900390600052602060002001600090919091909150557f29a21b7f0b67a6e288b021ea73f30160e1f4abc8c24dbe956ef95aaa4643d45a82898960405161118993929190611ada565b60405180910390a1509695505050505050565b806000600160008381526020019081526020016000206000015414156111f7576040517f08c379a00000000000000000000000000000000000000000000000000000000081526004016111ee90611c23565b60405180910390fd5b813373ffffffffffffffffffffffffffffffffffffffff166001600083815260200190815260200160002060050160008154811061125e577f4e487b7100000000000000000000000000000000000000000000000000000000600052603260045260246000fd5b9060005260206000200160009054906101000a900473ffffffffffffffffffffffffffffffffffffffff1673ffffffffffffffffffffffffffffffffffffffff16146112df576040517f08c379a00000000000000000000000000000000000000000000000000000000081526004016112d690611ca3565b60405180910390fd5b6001806000858152602001908152602001600020600a0160006101000a81548160ff0219169083600181111561133e577f4e487b7100000000000000000000000000000000000000000000000000000000600052602160045260246000fd5b02179055507f29a21b7f0b67a6e288b021ea73f30160e1f4abc8c24dbe956ef95aaa4643d45a8360016000868152602001908152602001600020600101600160008781526020019081526020016000206002016040516113a093929190611bde565b60405180910390a1505050565b604051806101800160405280600c90602082028036833780820191505090505090565b8280546113dc90611efe565b90600052602060002090601f0160209004810192826113fe5760008555611445565b82601f1061141757805160ff1916838001178555611445565b82800160010185558215611445579182015b82811115611444578251825591602001919060010190611429565b5b5090506114529190611456565b5090565b5b8082111561146f576000816000905550600101611457565b5090565b600061148661148184611cf4565b611cc3565b90508281526020810184848401111561149e57600080fd5b6114a9848285611e92565b509392505050565b6000813590506114c08161208b565b92915050565b6000813590506114d5816120a2565b92915050565b600082601f8301126114ec57600080fd5b81356114fc848260208601611473565b91505092915050565b600081359050611514816120b9565b92915050565b60006020828403121561152c57600080fd5b600061153a848285016114c6565b91505092915050565b6000806040838503121561155657600080fd5b6000611564858286016114c6565b9250506020611575858286016114b1565b9150509250929050565b60006020828403121561159157600080fd5b600082013567ffffffffffffffff8111156115ab57600080fd5b6115b7848285016114db565b91505092915050565b60008060008060008060c087890312156115d957600080fd5b600087013567ffffffffffffffff8111156115f357600080fd5b6115ff89828a016114db565b965050602087013567ffffffffffffffff81111561161c57600080fd5b61162889828a016114db565b955050604087013567ffffffffffffffff81111561164557600080fd5b61165189828a016114db565b945050606087013567ffffffffffffffff81111561166e57600080fd5b61167a89828a016114db565b935050608061168b89828a016114b1565b92505060a087013567ffffffffffffffff8111156116a857600080fd5b6116b489828a016114db565b9150509295509295509295565b6000602082840312156116d357600080fd5b60006116e184828501611505565b91505092915050565b60006116f6838361177f565b60208301905092915050565b61171361170e82611e1b565b611f79565b82525050565b61172281611d43565b61172c8184611d66565b925061173782611d24565b8060005b8381101561176857815161174f87826116ea565b965061175a83611d59565b92505060018101905061173b565b505050505050565b61177981611e2d565b82525050565b61178881611e39565b82525050565b61179781611e39565b82525050565b6117a681611e80565b82525050565b60006117b782611d4e565b6117c18185611d71565b93506117d1818560208601611ea1565b6117da81612059565b840191505092915050565b60006117f082611d4e565b6117fa8185611d82565b935061180a818560208601611ea1565b80840191505092915050565b6000815461182381611efe565b61182d8186611d71565b94506001821660008114611848576001811461185a5761188d565b60ff198316865260208601935061188d565b61186385611d2e565b60005b8381101561188557815481890152600182019150602081019050611866565b808801955050505b50505092915050565b60006118a3601883611d71565b91507f5468697320706f737420646f65736e27742065786973742e00000000000000006000830152602082019050919050565b60006118e3601883611d71565b91507f5468697320706f737420646f6573206e6f7420657869737400000000000000006000830152602082019050919050565b6000611923602a83611d71565b91507f506c656173652063686f6f7365206120756e6971756520736c756720666f722060008301527f796f757220706f73742e000000000000000000000000000000000000000000006020830152604082019050919050565b6000611989602283611d71565b91507f4120706f73742077697468207468697320494420616c7265616479206578697360008301527f74730000000000000000000000000000000000000000000000000000000000006020830152604082019050919050565b60006119ef602d83611d71565b91507f596f7520617265206e6f7420746865207072696d61727920617574686f72206660008301527f6f72207468697320706f73742e000000000000000000000000000000000000006020830152604082019050919050565b611a5181611e76565b82525050565b6000611a6382846117e5565b915081905092915050565b6000611a7a82866117e5565b9150611a8682856117e5565b9150611a928284611702565b601482019150819050949350505050565b600061018082019050611ab96000830184611719565b92915050565b6000602082019050611ad4600083018461178e565b92915050565b6000606082019050611aef600083018661178e565b8181036020830152611b0181856117ac565b90508181036040830152611b1581846117ac565b9050949350505050565b600061014082019050611b35600083018d61178e565b8181036020830152611b47818c6117ac565b90508181036040830152611b5b818b6117ac565b90508181036060830152611b6f818a6117ac565b90508181036080830152611b8381896117ac565b9050611b9260a0830188611770565b611b9f60c083018761179d565b81810360e0830152611bb181866117ac565b9050611bc1610100830185611a48565b611bcf610120830184611a48565b9b9a5050505050505050505050565b6000606082019050611bf3600083018661178e565b8181036020830152611c058185611816565b90508181036040830152611c198184611816565b9050949350505050565b60006020820190508181036000830152611c3c81611896565b9050919050565b60006020820190508181036000830152611c5c816118d6565b9050919050565b60006020820190508181036000830152611c7c81611916565b9050919050565b60006020820190508181036000830152611c9c8161197c565b9050919050565b60006020820190508181036000830152611cbc816119e2565b9050919050565b6000604051905081810181811067ffffffffffffffff82111715611cea57611ce961202a565b5b8060405250919050565b600067ffffffffffffffff821115611d0f57611d0e61202a565b5b601f19601f8301169050602081019050919050565b6000819050919050565b60008190508160005260206000209050919050565b6000600c9050919050565b600081519050919050565b6000602082019050919050565b600081905092915050565b600082825260208201905092915050565b600081905092915050565b6000611d9882611e76565b9150611da383611e76565b9250817fffffffffffffffffffffffffffffffffffffffffffffffffffffffffffffffff0483118215151615611ddc57611ddb611f9d565b5b828202905092915050565b6000611df282611e76565b9150611dfd83611e76565b925082821015611e1057611e0f611f9d565b5b828203905092915050565b6000611e2682611e56565b9050919050565b60008115159050919050565b6000819050919050565b6000819050611e5182612077565b919050565b600073ffffffffffffffffffffffffffffffffffffffff82169050919050565b6000819050919050565b6000611e8b82611e43565b9050919050565b82818337600083830152505050565b60005b83811015611ebf578082015181840152602081019050611ea4565b83811115611ece576000848401525b50505050565b6000611edf82611e76565b91506000821415611ef357611ef2611f9d565b5b600182039050919050565b60006002820490506001821680611f1657607f821691505b60208210811415611f2a57611f29611ffb565b5b50919050565b6000611f3b82611e76565b91507fffffffffffffffffffffffffffffffffffffffffffffffffffffffffffffffff821415611f6e57611f6d611f9d565b5b600182019050919050565b6000611f8482611f8b565b9050919050565b6000611f968261206a565b9050919050565b7f4e487b7100000000000000000000000000000000000000000000000000000000600052601160045260246000fd5b7f4e487b7100000000000000000000000000000000000000000000000000000000600052602160045260246000fd5b7f4e487b7100000000000000000000000000000000000000000000000000000000600052602260045260246000fd5b7f4e487b7100000000000000000000000000000000000000000000000000000000600052604160045260246000fd5b6000601f19601f8301169050919050565b60008160601b9050919050565b6004811061208857612087611fcc565b5b50565b61209481611e2d565b811461209f57600080fd5b50565b6120ab81611e39565b81146120b657600080fd5b50565b6120c281611e76565b81146120cd57600080fd5b5056fea26469706673582212208b99aff7679035a8b6652fa3a50c1cce49726378f304b793ae7e871acf56b45a64736f6c63430008000033",
  "immutableReferences": {},
  "source": "// SPDX-License-Identifier: UNLICENSED\npragma solidity ^0.8.0;\n\ncontract Posts {\n    enum PostType {\n        text,\n        image,\n        video,\n        document\n    }\n    enum PostStatus {\n        unpublished,\n        published\n    }\n\n    struct Author {\n        address authorAddress;\n        bool preapproved; // approval from other approved authors of the post\n        bool approved; // approval from this specific author\n    }\n\n    struct Post {\n        bytes32 id;\n        string title;\n        string slug;\n        string synopsis;\n        string image;\n        address[] authors;\n        mapping(address => Author) authorsParams;\n        bool nsfw;\n        bool comments;\n        PostType postType;\n        string contentId;\n        uint256 createdAt;\n        PostStatus status;\n    }\n\n    bytes32[] public postsArray;\n    mapping(bytes32 => Post) postsMap;\n    mapping(string => bytes32) postsBySlug;\n    mapping(address => bytes32[]) postsByAuthor;\n\n    // events\n    event postCreated(bytes32 id, string title, address poster);\n    event postPublished(bytes32 id, string title, string slug);\n    event postUnpublished(bytes32 id, string title, string slug);\n    event postUnlisted(bytes32 id, string title, string slug);\n\n    // modifiers\n    modifier isUniqueSlug(string memory slug) {\n        require(\n            postsBySlug[slug] == \"\",\n            \"Please choose a unique slug for your post.\"\n        );\n        _;\n    }\n\n    modifier postWithSlugExists(string memory slug) {\n        require(postsBySlug[slug] != \"\", \"This post does not exist\");\n        _;\n    }\n\n    modifier postExists(bytes32 id) {\n        require(postsMap[id].id != \"\", \"This post doesn't exist.\");\n        _;\n    }\n\n    modifier isPostAuthor(bytes32 id) {\n        require(\n            postsMap[id].authors[0] == msg.sender,\n            \"You are not the primary author for this post.\"\n        );\n        _;\n    }\n\n    // functions\n    function createNewPost(\n        string memory title,\n        string memory slug,\n        string memory image,\n        string memory synopsis,\n        bool nsfw,\n        string memory contentId\n    ) public isUniqueSlug(slug) returns (bytes32 postId) {\n        postId = keccak256(abi.encodePacked(title, slug, msg.sender));\n        require(\n            postsMap[postId].id == \"\",\n            \"A post with this ID already exists\"\n        );\n\n        postsMap[postId].id = postId;\n        postsMap[postId].title = title;\n        postsMap[postId].slug = slug;\n        postsMap[postId].image = image;\n        postsMap[postId].synopsis = synopsis;\n        postsMap[postId].nsfw = nsfw;\n        postsMap[postId].comments = true;\n        postsMap[postId].postType = PostType.text;\n        postsMap[postId].contentId = contentId;\n        postsMap[postId].createdAt = block.timestamp;\n        postsMap[postId].status = PostStatus.published;\n        // set up msg.sender as main author of post\n        postsMap[postId].authors.push(msg.sender);\n        postsMap[postId].authorsParams[msg.sender] = Author({\n            authorAddress: msg.sender,\n            preapproved: true,\n            approved: true\n        });\n\n        // setup for slug based search (like a traditional blog)\n        postsBySlug[slug] = postId;\n        // setup for fetching author profile\n        postsByAuthor[msg.sender].push(postId);\n        // setup posts array\n        postsArray.push(postId);\n\n        // emit event for post published\n        emit postPublished(postId, title, slug);\n    }\n\n    function changePostNSFWStatus(bytes32 postId, bool nsfw)\n        public\n        postExists(postId)\n        isPostAuthor(postId)\n    {\n        postsMap[postId].nsfw = nsfw;\n    }\n\n    function publishPost(bytes32 postId)\n        public\n        postExists(postId)\n        isPostAuthor(postId)\n    {\n        postsMap[postId].status = PostStatus.published;\n        emit postPublished(\n            postId,\n            postsMap[postId].title,\n            postsMap[postId].slug\n        );\n    }\n\n    function unPublishPost(bytes32 postId)\n        public\n        postExists(postId)\n        isPostAuthor(postId)\n    {\n        postsMap[postId].status = PostStatus.unpublished;\n        emit postUnpublished(\n            postId,\n            postsMap[postId].title,\n            postsMap[postId].slug\n        );\n    }\n\n    function getPostBySlug(string memory _slug)\n        public\n        view\n        postWithSlugExists(_slug)\n        returns (\n            bytes32 postId,\n            string memory title,\n            string memory image,\n            string memory slug,\n            string memory synopsis,\n            bool nsfw,\n            PostType postType,\n            string memory contentId,\n            uint256 createdAt,\n            uint256 published\n        )\n    {\n        return getPost(postsBySlug[_slug]);\n    }\n\n    function getPost(bytes32 _postId)\n        public\n        view\n        postExists(_postId)\n        returns (\n            bytes32 postId,\n            string memory title,\n            string memory image,\n            string memory slug,\n            string memory synopsis,\n            bool nsfw,\n            PostType postType,\n            string memory contentId,\n            uint256 createdAt,\n            uint256 published\n        )\n    {\n        postId = _postId;\n        title = postsMap[_postId].title;\n        slug = postsMap[_postId].slug;\n        image = postsMap[_postId].image;\n        synopsis = postsMap[_postId].synopsis;\n        nsfw = postsMap[_postId].nsfw;\n        postType = postsMap[_postId].postType;\n        contentId = postsMap[_postId].contentId;\n        createdAt = postsMap[_postId].createdAt;\n        published = uint256(postsMap[_postId].status);\n    }\n\n    function fetchPaginatedPosts(uint256 page)\n        public\n        view\n        returns (bytes32[12] memory)\n    {\n        uint256 totalCount = 12;\n        bytes32[12] memory posts;\n        if (page == 0) {\n            page = 1;\n        }\n        uint256 startIndex = page * totalCount;\n        uint256 counter = 0;\n\n        // empty state\n        if (postsArray.length < 1) {\n            return posts;\n        }\n\n        // change start if total posts smaller than specified index\n        if (postsArray.length <= startIndex) {\n            startIndex = postsArray.length - 1;\n        }\n\n        for (uint256 index = 0; index <= totalCount; index++) {\n            posts[counter] = postsArray[startIndex];\n            if (startIndex == 0) {\n                break;\n            }\n            counter++;\n            startIndex--;\n        }\n\n        return posts;\n    }\n}\n",
  "sourcePath": "/Users/ghostffcode/Documents/UpkitStudio/etherblog/contracts/subcontracts/Posts.sol",
  "compiler": {
    "name": "solc",
    "version": "0.8.0+commit.c7dfd78e.Emscripten.clang"
  },
  "schemaVersion": "3.4.1",
  "updatedAt": "2021-07-17T22:48:45.649Z",
  "devdoc": {
    "kind": "dev",
    "methods": {},
    "version": 1
  },
  "userdoc": {
    "kind": "user",
    "methods": {},
    "version": 1
  }
}